:020000040800F2
:100000000000022089010008C1010008C1010008A8
:10001000C1010008C1010008C10100080000000082
:10002000000000000000000000000000C101000806
:10003000C101000800000000C1010008C101000862
:10004000C1010008C1010008C1010008C101000888
:10005000C1010008C1010008C1010008C101000878
:10006000C1010008C1010008C1010008C101000868
:10007000C1010008C1010008C1010008C101000858
:10008000C1010008C1010008C1010008C101000848
:10009000C1010008C1010008C1010008C101000838
:1000A000C1010008C1010008C1010008C101000828
:1000B000C1010008C1010008C1010008C101000818
:1000C000C1010008C1010008C1010008C101000808
:1000D000C1010008C1010008C1010008C1010008F8
:1000E000C1010008C1010008C1010008C1010008E8
:1000F000C1010008C1010008C1010008C1010008D8
:10010000C1010008C1010008C1010008C1010008C7
:10011000C1010008C1010008C1010008C1010008B7
:10012000C1010008C1010008C1010008C1010008A7
:10013000C1010008C1010008C1010008C101000897
:10014000C1010008C1010008C1010008C101000887
:10015000C1010008C1010008C1010008C101000877
:10016000C1010008C1010008C1010008C101000867
:10017000C1010008C1010008C1010008C101000857
:10018000C1010008C101000880B483B000AF41F292
:1001900034237B6000233B607B6801337B60024B30
:1001A0001B683B60F8E700BF00000020C2010008A8
:1001B00000000020040000200400002008000020AF
:0201C000FEE758
:0401C20034120000F3
:040000050800018965
:00000001FF
