S00F00006F75742F6D61696E2E733139B9
S3180800000000000220F5030008D5020008E1020008E9020008
S3180800001308F1020008F902000800000000000000000000C6
S31808000026000000000000010300080D03000800000000197C
S31808000039030008250300084904000849040008490400086C
S3180800004C49040008490400084904000849040008490400F2
S3180800005F08490400084904000849040008490400084904D7
S3180800007200084904000849040008490400084904000849C8
S3180800008504000849040008490400084904000849040008FA
S3180800009849040008490400084904000849040008490400A6
S318080000AB084904000849040008490400084904000849048B
S318080000BE000849040008490400084904000849040008497C
S318080000D104000849040008490400084904000849040008AE
S318080000E4490400084904000849040008490400084904005A
S318080000F7084904000849040008490400084904000849043F
S3180800010A000849040008490400084904000849040008492F
S3180800011D0400084904000849040008490400084904000861
S31808000130490400084904000849040008490400084904000D
S3180800014308490400084904000849040008490400084904F2
S3180800015600084904000849040008490400084904000849E3
S318080001690400084904000849040008490400084904000815
S3180800017C49040008490400084904000880B500AF114A1113
S3180800018F4B1B6843F0010313600E4B00229A600D4A0C4BB4
S318080001A21B6823F0847323F480331360094B094A5A60070A
S318080001B54A074B1B6823F480231360044B0022DA6000F042
S318080001C80BF8044B4FF000629A6080BD0038024010300032
S318080001DB2400ED00E080B483B000AF00237B6000233B6040
S318080001EE354A344B1B6843F480331360324B1B6803F4001B
S31808000201333B607B6801337B603B68002B03D17B68B3F5EF
S31808000214A06FF0D12A4B1B6803F40033002B02D001233B7B
S318080002276001E000233B603B68012B42D1234A234B1B6C73
S3180800023A43F080531364214A214B1B6843F4804313601D42
S3180800024D4A1D4B9B6893601B4A1B4B9B6843F400439360AD
S31808000260184A184B9B6843F4A0539360154B174A5A601409
S318080002734A134B1B6843F08073136000BF104B1B6803F016
S318080002860073002BF9D0104B40F205621A600B4A0B4B9B3C
S318080002996823F003039360084A084B9B6843F002039360FD
S318080002AC00BF054B9B6803F00C03082BF9D10C37BD465D7D
S318080002BFF8047B7047003802400070004008544007003CE7
S318080002D2024080B400AFBD465DF8047B704780B400AFFE77
S318080002E5E700BF80B400AFFEE700BF80B400AFFEE700BF44
S318080002F880B400AFFEE700BF80B400AFBD465DF8047B7034
S3180800030B4780B400AFBD465DF8047B704780B400AFBD4633
S3180800031E5DF8047B704780B400AF044B1B680133034A13EA
S3180800033160BD465DF8047B704700BF1800002080B500AFE2
S31808000344184A184B1B6B43F008031363164A164B1B682332
S31808000357F040431360134A134B1B6843F080431360104A9E
S3180800036A104BDB6823F04043D3600E4B1B78002B09D00C0F
S3180800037D4B00221A700A4A094B5B6923F40043536108E006
S31808000390074B01221A70054A044B5B6943F40043536100BD
S318080003A3F007F8E5E700380240000C02401400002080B44E
S318080003B683B000AF00237B6002E07B6801337B607B68048B
S318080003C94A9342F8D900BF0C37BD465DF8047B704700BFD4
S318080003DCFFD330004A040008000000201400002014000040
S318080003EF201C000020002103E00D4B5B58435004310C4866
S318080004020D4B42189A42F6D30C4A02E0002342F8043B0AA4
S318080004154B9A42F9D30A48016841F470010160FFF7B0FE6D
S31808000428FFF78AFF704700DF4A0400080000002014000014
S3140800043B20140000201C00002088ED00E0FEE7DA
S3180800044A007A030A000000000000000001020304060708EB
S3060800045D0987
S70508000341AE
