S00F00006F75742F6D61696E2E733139B9
S318080000000000022035310008A9070008B5070008BD07000F
S3180800001308C5070008CD0700080000000000000000000014
S31808000026000000000000D5070008E107000800000000EDF8
S31808000039070008F907000889310008893100088931000849
S3180800004C89310008893100088931000889310008893100D1
S3180800005F08893100088931000889310008893100088931B6
S3180800007200088931000889310008893100088931000889D4
S318080000853100088931000889310008893100088931000819
S318080000988931000889310008893100088931000889310085
S318080000AB08893100081D14000889310008893100088931F3
S318080000BE0008893100088931000889310008893100088988
S318080000D131000889310008893100088931000889310008CD
S318080000E48931000889310008893100088931000889310039
S318080000F7088931000889310008893100088931000889311E
S3180800010A000889310008893100088931000889310008893B
S3180800011D3100088931000889310008893100088931000880
S3180800013089310008893100088931000889310008893100EC
S3180800014308893100088931000889310008893100088931D1
S3180800015600088931000889310008893100088931000889EF
S318080001693100088931000889310008893100088931000834
S3110800017C89310008893100088931000823
S3180800018880B582B000AF78607B683C4A934208D10120012F
S3180800019B2100F0B4FE0120002100F0B0FE68E07B68364AF5
S318080001AE934208D10220012100F0A7FE0220002100F0A3D3
S318080001C1FE5BE07B68314A934208D10420012100F09AFE0A
S318080001D40420002100F096FE4EE07B682B4A934208D10805
S318080001E720012100F08DFE0820002100F089FE41E07B6876
S318080001FA264A934208D11020012100F080FE1020002100B5
S3180800020DF07CFE34E07B68204A934208D12020012100F005
S3180800022073FE2020002100F06FFE27E07B681B4A93420862
S31808000233D14020012100F066FE4020002100F062FE1AE038
S318080002467B68154A934208D18020012100F059FE802000FE
S318080002592100F055FE0DE07B68104A934209D14FF4807014
S3180800026C012100F04BFE4FF48070002100F046FE0837BD92
S3180800027F4680BD00BF000002400004024000080240000C3E
S318080002920240001002400014024000180240001C024000A9
S318080002A520024080B487B000AF7860396000237B61002329
S318080002B83B610023FB6000237B6176E07B69012202FA03B0
S318080002CBF33B613B681A683B691340FB60FA683B699A422A
S318080002DE65D17B681A687B695B00194603238B40DB431A9D
S318080002F1407B681A607B681A683B681B7919467B695B0015
S3180800030401FA03F31A437B681A603B681B79012B03D03BBC
S31808000317681B79022B2ED17B689A687B695B0019460323F4
S3180800032A8B40DB431A407B689A607B689A683B685B79191D
S3180800033D467B695B0001FA03F31A437B689A607B685A684A
S318080003507B699BB2194601238B40DB431A407B685A607B7D
S31808000363685B683A68927911467A6992B201FA02F292B2F0
S318080003761A437B685A607B68DA687B699BB25B0003210196
S31808000389FA03F3DB431A407B68DA607B68DA683B68DB79B2
S3180800039C19467B695B0001FA03F31A437B68DA607B690152
S318080003AF337B617B690F2B85D91C37BD465DF8047B7047C1
S318080003C200BF80B483B000AF78607B684FF6FF721A607BDF
S318080003D56800221A717B6800225A717B6800229A717B682F
S318080003E80022DA710C37BD465DF8047B704700BF80B4853E
S318080003FBB000AF78600B467B804FF48033FB607A88FB68A8
S3180800040E1343FB60FA687B68DA617A887B68DA61FA687B9F
S3180800042168DA617B68DB69FB607B68DB69FB601437BD46C5
S318080004345DF8047B704700BF80B485B000AF78600B467BA1
S31808000447800023FB737B681A697B881340002B02D00123A6
S3180800045AFB7301E00023FB73FB7B18461437BD465DF80426
S3180800046D7B704780B483B000AF78607B681B699BB218463C
S318080004800C37BD465DF8047B704700BF80B485B000AF783B
S31808000493600B467B800023FB737B685A697B881340002BE4
S318080004A602D00123FB7301E00023FB73FB7B18461437BD83
S318080004B9465DF8047B704780B483B000AF78607B685B69BC
S318080004CC9BB218460C37BD465DF8047B704700BF80B4831D
S318080004DFB000AF78600B467B807B687A881A830C37BD46B1
S318080004F25DF8047B704780B483B000AF78600B467B807BA9
S31808000505687A885A830C37BD465DF8047B704780B483B056
S3180800051800AF78600B467B8013467B707B78002B03D07B3F
S3180800052B687A881A8302E07B687A885A830C37BD465DF869
S3180800053E047B704700BF80B483B000AF78600B467B807AF3
S31808000551887B685A610C37BD465DF8047B704780B483B02B
S3180800056400AF78600B467B807B685A697B885A407B685A23
S31808000577610C37BD465DF8047B704700BF80B485B000AF5A
S3180800058A78600B467B8013467B700023FB600023BB607BB1
S3180800059D787A8802F0070292009340FB607B88DB089BB2D5
S318080005B018467B88DB089BB21A467B68083253F822207B14
S318080005C38803F007039B0019460F238B40DB4302EA03018D
S318080005D67B6800F1080243F822107B88DB089BB21A467BAB
S318080005E968083253F82220FB681343BB607B88DB089BB2BB
S318080005FC1A467B680832B96843F822101437BD465DF8042C
S3180800060F7B704700BF80B500AF124A124B1B6843F0010382
S3180800062213600F4B00229A600E4A0D4B1B6823F08473236E
S31808000635F4803313600A4B0A4A5A60084A084B1B6823F4E8
S3180800064880231360054B0022DA6000F00DF800F087F80467
S3180800065B4B4FF000529A6080BD003802401030002400EDA0
S3180800066E00E080B483B000AF00237B6000233B60364A3504
S318080006814B1B6843F480331360334B1B6803F400333B6067
S318080006947B6801337B603B68002B03D17B68B3F5A06FF027
S318080006A7D12B4B1B6803F40033002B02D001233B6001E0A1
S318080006BA00233B603B68012B43D1244A244B1B6C43F08067
S318080006CD531364224A224B1B6843F4804313601E4A1E4BA8
S318080006E09B6893601C4A1C4B9B6843F400439360194A194A
S318080006F34B9B6843F4A0539360164B184A5A60154A144B40
S318080007061B6843F08073136000BF114B1B6803F0007300B2
S318080007192BF9D0114B40F205621A600C4A0C4B9B6823F099
S3180800072C03039360094A094B9B6843F00203936000BF0619
S3180800073F4B9B6803F00C03082BF9D100E0FEE70C37BD4641
S318080007525DF8047B7047003802400070004008544007002E
S318080007653C024080B483B000AF0B4B7B600B4B3B6007E0D6
S318080007783B681A1D3A607A68111D796012681A603B680666
S3180800078B4A9342F3D30C37BD465DF8047B704700BF0000D8
S3180800079E0008000000208801002080B400AFBD465DF8042A
S318080007B17B704780B400AFFEE700BF80B400AFFEE700BFE7
S318080007C480B400AFFEE700BF80B400AFFEE700BF80B400D2
S318080007D7AFBD465DF8047B704780B400AFBD465DF8047B0A
S318080007EA704780B400AFBD465DF8047B704780B400AF04DF
S318080007FD4B1B680133034A1360BD465DF8047B704700BFCC
S31808000810B001002080B400AF104A104B1B6843F001031391
S31808000823600D4B00229A600C4A0B4B1B6823F0847323F490
S3180800083680331360084B084A5A60064A064B1B6823F48061
S31808000849231360034B0022DA60BD465DF8047B704700BF01
S3180800085C003802401030002480B483B000AF0346FB7105CD
S3180800086F4B00221A70034AFB7913700C37BD465DF8047B13
S3180800088270470238024080B582B000AF00233B600023FB30
S31808000895710023BB71312000F086FC0346BB713B68013373
S318080008A83B603B68B3F5A06F02D0BB79002BF0D0312000F8
S318080008BBF077FC0346002B02D00123FB7101E00023FB7173
S318080008CEFB7918460837BD4680BD80B485B000AF0346FB5C
S318080008E1710023FB600A4B1B68FB60FB6823F0F803FB6008
S318080008F4FB79DB00FA681343FB60044AFB6813601437BD55
S31808000907465DF8047B704700BF0038024080B483B000AFAF
S3180800091A0346FB71044AFB7913600C37BD465DF8047B7048
S3180800092D4700BF0000474280B483B000AF0346FB710C4BF8
S3180800094000221A700A4B00221A70FB79012B02D0042B0444
S31808000953D007E0064B01221A7003E0044B05221A7000BF2C
S318080009660C37BD465DF8047B70477038024080B483B0004E
S31808000979AF0346FB71044AFB7913600C37BD465DF8047BAA
S3180800098C704700BF800E474280B485B000AFF860B9607ABA
S3180800099F603B600A497B689A01BB681A433B685B08013BA9
S318080009B21B041A43FB681A43BB691B0613434B601437BD9A
S318080009C5465DF8047B70470038024080B483B000AF034667
S318080009D8FB71044AFB7913600C37BD465DF8047B7047008C
S318080009EBBF6000474280B483B000AF7860396006497B688A
S318080009FE9A013B681B071343C1F884300C37BD465DF80416
S31808000A117B70470038024080B483B000AF0346FB71044AFF
S31808000A24FB7913600C37BD465DF8047B704700BF6800478B
S31808000A374280B483B000AF0346FB71044AFB7913600C3719
S31808000A4ABD465DF8047B704700BF4C00474280B485B00000
S31808000A5DAF786039600023FB600A4B9B68FB60FB6823F0B1
S31808000A70EC63FB607A683B681343FA681343FB60034AFB85
S31808000A836893601437BD465DF8047B70470038024080B470
S31808000A9685B000AF786039600023FB600A4B9B68FB60FBBE
S31808000AA96823F07843FB607A683B681343FA681343FB60AD
S31808000ABC034AFB6893601437BD465DF8047B704700380263
S31808000ACF4080B485B000AF78600023FB60094B9B68FB60A6
S31808000AE2FB6823F00303FB60FA687B681343FB60044AFBDD
S31808000AF56893601437BD465DF8047B704700BF0038024073
S31808000B0880B400AF054B9B68DBB203F00C03DBB21846BD5F
S31808000B1B465DF8047B704700BF0038024080B485B000AF97
S31808000B2E78600023FB60094B9B68FB60FB6823F0F003FB3A
S31808000B4160FA687B681343FB60044AFB6893601437BD464B
S31808000B545DF8047B704700BF0038024080B485B000AF782C
S31808000B67600023FB60094B9B68FB60FB6823F4E053FB60D5
S31808000B7AFA687B681343FB60044AFB6893601437BD465D15
S31808000B8DF8047B704700BF0038024080B485B000AF7860F0
S31808000BA00023FB60094B9B68FB60FB6823F46043FB607B11
S31808000BB368DB00FA681343FB60034AFB6893601437BD46DA
S31808000BC65DF8047B70470038024080B489B000AF78600015
S31808000BD923BB6100237B610023FB6102233B610023FB60FF
S31808000BEC0223BB60484B9B6803F00C03BB61BB69042B079A
S31808000BFFD0082B09D0002B3FD17B68434A1A603FE07B68D2
S31808000C12424A1A603BE03E4B5B6803F480039B0DFB603B9C
S31808000C254B5B6803F03F03BB60FB68002B0DD0394ABB683F
S31808000C38B2FBF3F2354B596847F6C0730B409B0903FB0269
S31808000C4BF3FB610CE0314ABB68B2FBF3F22E4B596847F6A6
S31808000C5EC0730B409B0903FB02F3FB612A4B5B6803F44095
S31808000C71331B0C01335B003B61FA693B69B2FBF3F27B6861
S31808000C841A6003E07B68234A1A6000BF204B9B6803F0F018
S31808000C9703BB61BB691B09BB611F4ABB6913441B78DBB2B5
S31808000CAA7B617B681A687B69DA407B685A60164B9B6803E6
S31808000CBDF4E053BB61BB699B0ABB61154ABB6913441B7881
S31808000CD0DBB27B617B685A687B69DA407B689A600C4B9B28
S31808000CE36803F46043BB61BB695B0BBB610B4ABB6913445C
S31808000CF61B78DBB27B617B685A687B69DA407B68DA6024FD
S31808000D0937BD465DF8047B704700BF003802400024F400B3
S31808000D1C40787D019C01002080B485B000AF78600023FBB5
S31808000D2F607B6803F44073B3F5407F11D10F4B9B68FB60B5
S31808000D42FB6823F4F813FB607B6823F0704323F44073FA43
S31808000D55681343FB60084AFB6893600649064B1A6F7B68B0
S31808000D68C3F30B0313430B671437BD465DF8047B70470005
S31808000D7BBF0038024080B483B000AF0346FB71044AFB7991
S31808000D8E13600C37BD465DF8047B704700BF3C0E474280EE
S31808000DA1B483B000AF0346FB71044AFB7913600C37BD466B
S31808000DB45DF8047B704700BF400E474280B483B000AF786F
S31808000DC760034A7B6813600C37BD465DF8047B70475C01DA
S31808000DDA474280B483B000AF78600B46FB70FB78002B0621
S31808000DEDD00949084B1A6B7B6813430B6306E00549054BC0
S31808000E001A6B7B68DB4313400B630C37BD465DF8047B7000
S31808000E13470038024080B483B000AF78600B46FB70FB78E0
S31808000E26002B06D00949084B5A6B7B6813434B6306E0056E
S31808000E3949054B5A6B7B68DB4313404B630C37BD465DF89D
S31808000E4C047B70470038024080B483B000AF78600B46FB9B
S31808000E5F70FB78002B06D00949084B9A6B7B6813438B63BD
S31808000E7206E00549054B9A6B7B68DB4313408B630C37BD94
S31808000E85465DF8047B70470038024080B483B000AF786013
S31808000E980B46FB70FB78002B06D00949084B1A6C7B6813E8
S31808000EAB430B6406E00549054B1A6C7B68DB4313400B64A7
S31808000EBE0C37BD465DF8047B70470038024080B483B00061
S31808000ED1AF78600B46FB70FB78002B06D00949084B5A6CDE
S31808000EE47B6813434B6406E00549054B5A6C7B68DB4313A7
S31808000EF7404B640C37BD465DF8047B70470038024080B46C
S31808000F0A83B000AF78600B46FB70FB78002B06D009490882
S31808000F1D4B1A697B6813430B6106E00549054B1A697B6856
S31808000F30DB4313400B610C37BD465DF8047B7047003802B8
S31808000F434080B483B000AF78600B46FB70FB78002B06D02F
S31808000F560949084B5A697B6813434B6106E00549054B5A4F
S31808000F69697B68DB4313404B610C37BD465DF8047B70472D
S31808000F7C0038024080B483B000AF78600B46FB70FB7800BD
S31808000F8F2B06D00949084B9A697B6813438B6106E005493F
S31808000FA2054B9A697B68DB4313408B610C37BD465DF804FC
S31808000FB57B70470038024080B483B000AF78600B46FB70C5
S31808000FC8FB78002B06D00949084B1A6A7B6813430B6206BF
S31808000FDBE00549054B1A6A7B68DB4313400B620C37BD46EC
S31808000FEE5DF8047B70470038024080B483B000AF78600BE4
S3180800100146FB70FB78002B06D00949084B5A6A7B68134307
S318080010144B6206E00549054B5A6A7B68DB4313404B620CB9
S3180800102737BD465DF8047B70470038024080B483B000AF53
S3180800103A78600B46FB70FB78002B06D00949084B1A6D7BE6
S3180800104D6813430B6506E00549054B1A6D7B68DB431340F5
S318080010600B650C37BD465DF8047B70470038024080B483FD
S31808001073B000AF78600B46FB70FB78002B06D00949084B50
S318080010865A6D7B6813434B6506E00549054B5A6D7B68DB90
S318080010994313404B650C37BD465DF8047B704700380240A5
S318080010AC80B483B000AF78600B46FB70FB78002B06D009FC
S318080010BF49084B9A6D7B6813438B6506E00549054B9A6DB9
S318080010D27B68DB4313408B650C37BD465DF8047B704700E8
S318080010E538024080B483B000AF78600B46FB70FB78002B28
S318080010F806D00949084B1A6E7B6813430B6606E0054905F1
S3180800110B4B1A6E7B68DB4313400B660C37BD465DF8047B11
S3180800111E70470038024080B483B000AF78600B46FB70FBDA
S3180800113178002B06D00949084B5A6E7B6813434B6606E0E7
S318080011440549054B5A6E7B68DB4313404B660C37BD465D7C
S31808001157F8047B70470038024080B483B000AF03460A4620
S3180800116AFB711346BB71BB79002B08D00C490B4B1B78DA24
S3180800117DB2FB791343DBB20B7009E00749074B1B78DAB223
S31808001190FB79DB43DBB21340DBB20B700C37BD465DF80425
S318080011A37B704700BF0D38024080B487B000AF0346FB71E4
S318080011B60023FB6000237B610023FB74FB795B09DBB2FBA9
S318080011C960FB68012B03D1124B1B687B6109E0FB68022B0D
S318080011DC03D10F4B1B6F7B6102E00D4B5B6F7B61FB790307
S318080011EFF01F03FB60FB687A6922FA03F303F00103002BF8
S3180800120202D00123FB7401E00023FB74FB7C18461C37BD0E
S31808001215465DF8047B70470038024080B400AF044A044BED
S318080012285B6F43F080735367BD465DF8047B704700380233
S3180800123B4080B485B000AF0346FB710023FB73094BDA685E
S3180800124EFB791340002B02D00123FB7301E00023FB73FBBC
S318080012617B18461437BD465DF8047B704700BF0038024081
S3180800127480B483B000AF0346FB71044AFB7913700C37BD49
S31808001287465DF8047B704700BF0E38024080B483B000AF18
S3180800129A7860054A7B6843F0BF6343F40033D3600C37BD37
S318080012AD465DF8047B704700ED00E080B485B000AF786092
S318080012C00023FB730023BB730F237B737B68DB78002B3872
S318080012D3D0264BDB68DB4303F4E0631B0AFB73FB7BC3F161
S318080012E60403BB737A7BFB7B42FA03F37B737B685B781A57
S318080012F946BB7B02FA03F3FB737B689A787B7B1340DAB22E
S3180800130CFB7B1343FB73FB7B1B01FB73164A7B681B78139D
S3180800131F44FA7B83F80023134A7B681B785B09DBB2184634
S318080013327B681B7803F01F03012101FA03F342F820300F63
S31808001345E00B497B681B785B09DBB218467B681B7803F025
S318080013581F0301229A4000F1200341F823201437BD465D1A
S3180800136BF8047B704700ED00E000E100E080B483B000AF8F
S3180800137E7860396007493B6823F0604323F07F037A6813AA
S31808001391438B600C37BD465DF8047B704700BF00ED00E0B0
S318080013A480B483B000AF03460A46FB711346BB71BB790054
S318080013B72B06D00949084B1A69FB7913430B6106E0054982
S318080013CA054B1A69FB79DB4313400B610C37BD465DF8043F
S318080013DD7B704700ED00E080B483B000AF78607B68042BF0
S318080013F006D1094A084B1B6843F00403136005E0054A05F6
S318080014034B1B6823F0040313600C37BD465DF8047B70479C
S3180800141600BF10E000E080B500AF4FF08040012101F00B25
S31808001429FB0346002B09D04FF08040012101F02DFB034BD2
S3180800143C1B680133014A136080BD00BFAC01002080B5829A
S3180800144FB000AF00237B6000F013F8084B1B6805337B603B
S3180800146200F03FF800F043F800F047F800BF024B1A687BDF
S31808001475689A42FAD3EEE7AC01002080B584B000AF1C234C
S318080014883B7300237B730023BB730123FB7307F10C031882
S3180800149B46FFF70CFF01200121FFF7F4FC40F2CF737B6071
S318080014AE4AF20F433B8000233B8100237B803B464FF08097
S318080014C140194600F012F94FF080400121012201F058FAE9
S318080014D44FF08040012100F089FA1037BD4680BD80B500A7
S318080014E7AF00F00EF880BD00BF80B500AF00F008F880BD32
S318080014FA00BF80B500AF00F002F880BD00BF80B483B000E1
S3180800150DAF00237B6002E07B6801337B607B68034A934237
S31808001520F8D90C37BD465DF8047B70479F86010080B5822B
S31808001533B000AF78607B685F4A934208D101200121FFF7ED
S3180800154658FD01200021FFF754FDAFE07B68B3F1804F08B9
S31808001559D101200121FFF72DFD01200021FFF729FDA2E05D
S3180800156C7B68534A934208D102200121FFF720FD022000B7
S3180800157F21FFF71CFD95E07B684D4A934208D10420012138
S31808001592FFF713FD04200021FFF70FFD88E07B68484A937B
S318080015A54208D108200121FFF706FD08200021FFF702FD89
S318080015B87BE07B68424A934208D110200121FFF7F9FC104D
S318080015CB200021FFF7F5FC6EE07B683D4A934208D1202031
S318080015DE0121FFF7ECFC20200021FFF7E8FC61E07B683756
S318080015F14A934208D102200121FFF7FDFC02200021FFF775
S31808001604F9FC54E07B68324A93420AD14FF480300121FF79
S31808001617F7EFFC4FF480300021FFF7EAFC45E07B682B4A63
S3180800162A93420AD14FF400300121FFF7E0FC4FF400300015
S3180800163D21FFF7DBFC36E07B68254A93420AD14FF48020A3
S318080016500121FFF7D1FC4FF480200021FFF7CCFC27E07B50
S31808001663681E4A934208D140200121FFF7A5FC402000214E
S31808001676FFF7A1FC1AE07B68194A934208D180200121FF11
S31808001689F798FC80200021FFF794FC0DE07B68134A93426C
S3180800169C09D14FF480700121FFF78AFC4FF480700021FF2F
S318080016AFF785FC0837BD4680BD0000014000040040000896
S318080016C20040000C00400010004000140040000401400092
S318080016D5400140004401400048014000180040001C0040B1
S318080016E80020004080B485B000AF786039600023FB817BDE
S318080016FB681B88FB817B68284A934213D07B68274A934211
S3180800170E0FD07B68B3F1804F0BD07B68244A934207D07B32
S3180800172168234A934203D07B68224A934208D1FB8923F096
S318080017347003FB813B685A88FB891343FB817B681C4A93EE
S31808001747420CD07B681B4A934208D0FB8923F44073FB81A4
S3180800175A3B681A89FB891343FB817B68FA891A803B685AD5
S3180800176D687B68DA623B681A887B681A857B68094A934202
S3180800178003D07B68084A934204D13B689B7A9AB27B681A95
S31808001793867B6801229A821437BD465DF8047B70470000B4
S318080017A60140000401400004004000080040000C004000C4
S318080017B91000400014004080B483B000AF78607B684FF05B
S318080017CCFF325A607B6800221A807B6800221A817B6800EF
S318080017DF225A807B6800229A720C37BD465DF8047B70470B
S318080017F200BF80B483B000AF78600B467B8013463B807B4E
S31808001805687A881A857B683A889A820C37BD465DF8047BDE
S31808001818704700BF80B485B000AF78600B467B800023FBDF
S3180800182B817B681B88FB81FB8923F07003FB81FA897B880D
S3180800183E1343FB817B68FA891A801437BD465DF8047B7025
S318080018514700BF80B483B000AF786039607B683A685A62A8
S318080018640C37BD465DF8047B704700BF80B483B000AF7845
S318080018776039607B683A68DA620C37BD465DF8047B7047C5
S3180800188A00BF80B483B000AF78607B685B6A18460C37BD8A
S3180800189D465DF8047B704780B483B000AF78607B681B8DE0
S318080018B09BB218460C37BD465DF8047B704700BF80B48325
S318080018C3B000AF78600B46FB70FB78002B08D07B681B8815
S318080018D69BB243F002039AB27B681A8007E07B681B889B9B
S318080018E9B223F002039AB27B681A800C37BD465DF8047B31
S318080018FC704700BF80B483B000AF78600B467B807B880018
S3180800190F2B08D07B681B889BB243F004039AB27B681A80DE
S3180800192207E07B681B889BB223F004039AB27B681A800CFB
S3180800193537BD465DF8047B704700BF80B483B000AF78601F
S318080019480B46FB70FB78002B08D07B681B889BB243F080C6
S3180800195B039AB27B681A8007E07B681B889BB223F080034F
S3180800196E9AB27B681A800C37BD465DF8047B704700BF807F
S31808001981B483B000AF78600B467B807B681B889BB223F0A5
S3180800199408039AB27B681A807B681B889AB27B8813439A99
S318080019A7B27B681A800C37BD465DF8047B704700BF80B42C
S318080019BA83B000AF78600B467B807B681B889BB223F440DC
S318080019CD739AB27B681A807B681B889AB27B8813439AB246
S318080019E07B681A800C37BD465DF8047B704700BF80B48322
S318080019F3B000AF78600B46FB70FB78002B08D07B681B88E4
S31808001A069BB243F001039AB27B681A8007E07B681B889B6A
S31808001A19B223F001039AB27B681A800C37BD465DF8047B00
S31808001A2C704700BF80B485B000AF7860396000237B81007B
S31808001A3F23FB810023BB817B681B8C9BB223F001039AB24E
S31808001A527B681A847B681B8CFB817B689B88BB817B681BAC
S31808001A658B7B817B8923F070037B817B8923F003037B813A
S31808001A783B681A887B8913437B81FB8923F00203FB813B5F
S31808001A8B689A89FB891343FB813B685A88FB891343FB817E
S31808001A9E7B681E4A934203D07B681D4A934223D1FB89237A
S31808001AB1F00803FB813B68DA89FB891343FB81FB8923F0AA
S31808001AC40403FB813B689A88FB891343FB81BB8923F48088
S31808001AD773BB81BB8923F40073BB813B681A8ABB89134354
S31808001AEABB813B685A8ABB891343BB817B68BA899A807B87
S31808001AFD687A891A833B689A687B685A637B68FA891A8477
S31808001B101437BD465DF8047B704700BF00000140000401D6
S31808001B234080B485B000AF7860396000237B810023FB811A
S31808001B360023BB817B681B8C9BB223F010039AB27B681AE9
S31808001B49847B681B8CFB817B689B88BB817B681B8B7B812A
S31808001B5C7B8923F4E0437B817B8923F440737B813B681BA6
S31808001B6F881B029AB27B8913437B81FB8923F02003FB81D8
S31808001B823B689B891B019AB2FB891343FB813B685B881B1C
S31808001B95019AB2FB891343FB817B68224A934203D07B68B2
S31808001BA8214A93422BD1FB8923F08003FB813B68DB891B28
S31808001BBB019AB2FB891343FB81FB8923F04003FB813B686D
S31808001BCE9B881B019AB2FB891343FB81BB8923F48063BB1C
S31808001BE181BB8923F40063BB813B681B8A9B009AB2BB89F5
S31808001BF41343BB813B685B8A9B009AB2BB891343BB817B7E
S31808001C0768BA899A807B687A891A833B689A687B689A63EF
S31808001C1A7B68FA891A841437BD465DF8047B704700BF000D
S31808001C2D0001400004014080B485B000AF78603960002364
S31808001C407B810023FB810023BB817B681B8C9BB223F4801B
S31808001C53739AB27B681A847B681B8CFB817B689B88BB81E8
S31808001C667B689B8B7B817B8923F070037B817B8923F003B8
S31808001C79037B813B681A887B8913437B81FB8923F40073A2
S31808001C8CFB813B689B891B029AB2FB891343FB813B685B37
S31808001C9F881B029AB2FB891343FB817B68224A934203D0E6
S31808001CB27B68214A93422BD1FB8923F40063FB813B68DBFA
S31808001CC5891B029AB2FB891343FB81FB8923F48063FB81BC
S31808001CD83B689B881B029AB2FB891343FB81BB8923F4808B
S31808001CEB53BB81BB8923F40053BB813B681B8A1B019AB2AF
S31808001CFEBB891343BB813B685B8A1B019AB2BB891343BBAA
S31808001D11817B68BA899A807B687A899A833B689A687B6865
S31808001D24DA637B68FA891A841437BD465DF8047B70470084
S31808001D37BF000001400004014080B485B000AF78603960BD
S31808001D4A0023BB8100237B810023FB817B681B8C9BB22361
S31808001D5DF480539AB27B681A847B681B8C7B817B689B8845
S31808001D70FB817B689B8BBB81BB8923F4E043BB81BB892370
S31808001D83F44073BB813B681B881B029AB2BB891343BB81D7
S31808001D967B8923F400537B813B689B891B039AB27B89137A
S31808001DA9437B813B685B881B039AB27B8913437B817B68B1
S31808001DBC114A934203D07B68104A93420AD1FB8923F480FB
S31808001DCF43FB813B681B8A9B019AB2FB891343FB817B68CB
S31808001DE2FA899A807B68BA899A833B689A687B681A647B7F
S31808001DF5687A891A841437BD465DF8047B704700000140AA
S31808001E080004014080B483B000AF78607B6800221A807B6C
S31808001E1B6800225A807B6800229A807B6800229A607B6841
S31808001E2E00229A817B680022DA817B6800221A827B680072
S31808001E41225A820C37BD465DF8047B704700BF80B485B089
S31808001E5400AF78600B467B8013463B800023FB6000237B6A
S31808001E67817B68FB60FB681833FB607B88012202FA03F37A
S31808001E7A7B817B681B8C9AB27B89DB439BB213409AB27BEC
S31808001E8D681A847B88002B02D07B88082B14D17B885B08AD
S31808001EA09BB21A46FB681344FB60FA68FB6819684FF68F45
S31808001EB3730B401360FB68FA6811683A880A431A6017E01F
S31808001EC67B88043B9BB25B089BB21A46FB681344FB60FA4D
S31808001ED968FB68196848F6FF730B401360FB68FA681268EF
S31808001EEC3988090289B20A431A601437BD465DF8047B7075
S31808001EFF4780B483B000AF786039607B683A685A630C376F
S31808001F12BD465DF8047B704700BF80B483B000AF7860393A
S31808001F25607B683A689A630C37BD465DF8047B704700BF29
S31808001F3880B483B000AF786039607B683A68DA630C37BD3F
S31808001F4B465DF8047B704700BF80B483B000AF786039605E
S31808001F5E7B683A681A640C37BD465DF8047B704700BF804F
S31808001F71B485B000AF78600B467B800023FB817B681B8B6B
S31808001F84FB81FB8923F07003FB81FA897B881343FB817B67
S31808001F9768FA891A831437BD465DF8047B704700BF80B4D5
S31808001FAA85B000AF78600B467B800023FB817B681B8BFBEB
S31808001FBD81FB8923F4E043FB817B881B029AB2FB89134302
S31808001FD0FB817B68FA891A831437BD465DF8047B70470098
S31808001FE3BF80B485B000AF78600B467B800023FB817B6860
S31808001FF69B8BFB81FB8923F07003FB81FA897B881343FBCB
S31808002009817B68FA899A831437BD465DF8047B704700BF1A
S3180800201C80B485B000AF78600B467B800023FB817B689B4A
S3180800202F8BFB81FB8923F4E043FB817B881B029AB2FB895F
S318080020421343FB817B68FA899A831437BD465DF8047B7096
S318080020554700BF80B485B000AF78600B467B800023FB8189
S318080020687B681B8BFB81FB8923F00803FB81FA897B88139B
S3180800207B43FB817B68FA891A831437BD465DF8047B7047A9
S3180800208E00BF80B485B000AF78600B467B800023FB817B1C
S318080020A1681B8BFB81FB8923F40063FB817B881B029AB2AE
S318080020B4FB891343FB817B68FA891A831437BD465DF8040B
S318080020C77B704700BF80B485B000AF78600B467B800023A8
S318080020DAFB817B689B8BFB81FB8923F00803FB81FA897BC8
S318080020ED881343FB817B68FA899A831437BD465DF8047BD3
S31808002100704700BF80B485B000AF78600B467B800023FBEE
S31808002113817B689B8BFB81FB8923F40063FB817B881B020B
S318080021269AB2FB891343FB817B68FA899A831437BD465DC8
S31808002139F8047B704700BF80B485B000AF78600B467B805C
S3180800214C0023FB817B681B8BFB81FB8923F00403FB81FABA
S3180800215F897B881343FB817B68FA891A831437BD465DF85B
S31808002172047B704700BF80B485B000AF78600B467B80001B
S3180800218523FB817B681B8BFB81FB8923F48063FB817B8898
S318080021981B029AB2FB891343FB817B68FA891A831437BD5C
S318080021AB465DF8047B704700BF80B485B000AF78600B4642
S318080021BE7B800023FB817B689B8BFB81FB8923F00403FB48
S318080021D181FA897B881343FB817B68FA899A831437BD4643
S318080021E45DF8047B704700BF80B485B000AF78600B467BD4
S318080021F7800023FB817B689B8BFB81FB8923F48063FB8129
S3180800220A7B881B029AB2FB891343FB817B68FA899A83145A
S3180800221D37BD465DF8047B704700BF80B485B000AF78602C
S318080022300B467B800023FB817B681B8BFB81FB8923F08086
S3180800224303FB81FA897B881343FB817B68FA891A83143755
S31808002256BD465DF8047B704700BF80B485B000AF78600B1F
S31808002269467B800023FB817B681B8BFB81FB89C3F30E0324
S3180800227CFB817B881B029AB2FB891343FB817B68FA891A83
S3180800228F831437BD465DF8047B704700BF80B485B000AFFB
S318080022A278600B467B800023FB817B689B8BFB81FB89232C
S318080022B5F08003FB81FA897B881343FB817B68FA899A833E
S318080022C81437BD465DF8047B704700BF80B485B000AF78CD
S318080022DB600B467B800023FB817B689B8BFB81FB89C3F3D8
S318080022EE0E03FB817B881B029AB2FB891343FB817B68FAA3
S31808002301899A831437BD465DF8047B704700BF80B485B014
S3180800231400AF78600B467B800023FB817B681B8CFB81FB35
S318080023278923F00203FB81FA897B881343FB817B68FA89BA
S3180800233A1A841437BD465DF8047B704700BF80B485B000E3
S3180800234DAF78600B467B800023FB817B681B8CFB81FB8973
S3180800236023F00803FB81FA897B881343FB817B68FA891AEA
S31808002373841437BD465DF8047B704700BF80B485B000AF15
S3180800238678600B467B800023FB817B681B8CFB81FB8923C6
S31808002399F02003FB817B881B019AB2FB891343FB817B68F0
S318080023ACFA891A841437BD465DF8047B704700BF80B4859E
S318080023BFB000AF78600B467B800023FB817B681B8CFB81D5
S318080023D2FB8923F08003FB817B881B019AB2FB891343FB14
S318080023E5817B68FA891A841437BD465DF8047B704700BFBA
S318080023F880B485B000AF78600B467B800023FB817B681BEB
S3180800240B8CFB81FB8923F40073FB817B881B029AB2FB892E
S3180800241E1343FB817B68FA891A841437BD465DF8047B7035
S318080024314700BF80B485B000AF78600B467B800023FB81A9
S318080024447B681B8CFB81FB8923F40063FB817B881B029A3D
S31808002457B2FB891343FB817B68FA891A841437BD465DF8B5
S3180800246A047B704700BF80B485B000AF78600B467B800020
S3180800247D23FB817B681B8CFB81FB8923F40053FB817B882C
S318080024901B039AB2FB891343FB817B68FA891A841437BD5F
S318080024A3465DF8047B704700BF80B485B000AF78600B4647
S318080024B67B8013463B800023FB817B88012202FA03F3FB44
S318080024C9817B681B8C9AB2FB89DB439BB213409AB27B682A
S318080024DC1A847B681B8C9AB239887B8801FA03F39BB21356
S318080024EF439AB27B681A841437BD465DF8047B704780B4AF
S3180800250285B000AF78600B467B8013463B800023FB817B82
S3180800251588042202FA03F3FB817B681B8C9AB2FB89DB4311
S318080025289BB213409AB27B681A847B681B8C9AB239887B13
S3180800253B8801FA03F39BB213439AB27B681A841437BD4648
S3180800254E5DF8047B704780B582B000AF786039603B681B9C
S3180800256188002B0FD13B6859883B689A883B681B89786856
S3180800257400F0B0FC3B68DB887868194600F0E0F836E03B4C
S31808002587681B88042B0FD13B6859883B689A883B681B8989
S3180800259A786800F0DEFC3B68DB887868194600F0E8F8223F
S318080025ADE03B681B88082B0FD13B6859883B689A883B68E8
S318080025C01B89786800F016FD3B68DB887868194600F0F24C
S318080025D3F80EE03B6859883B689A883B681B89786800F0A1
S318080025E64EFD3B68DB887868194600F0FEF80837BD46809C
S318080025F9BD00BF80B483B000AF78607B6800221A807B68D5
S3180800260C00225A807B6801229A807B680022DA807B68004F
S3180800261F221A810C37BD465DF8047B704780B584B000AFF4
S31808002632786039600023FB810123BB813B685B88002B0264
S31808002645D10223FB8101E00023FB813B689B88012B02D1BD
S318080026580223BB8101E00123BB813B681B88002B1CD13B26
S3180800266B6859883B689A883B681B89786800F02EFC3B685C
S3180800267EDB887868194600F05EF83B681B89F989BA8978CF
S318080026916800F063FC3B68DB887868194600F06DF81BE0DC
S318080026A43B6859883B689A883B681B89786800F053FC3B2B
S318080026B768DB887868194600F05DF83B681B89F989BA89A7
S318080026CA786800F004FC3B68DB887868194600F034F810AE
S318080026DD37BD4680BD00BF80B483B000AF78607B685B6B0F
S318080026F018460C37BD465DF8047B704780B483B000AF780C
S31808002703607B689B6B18460C37BD465DF8047B704780B409
S3180800271683B000AF78607B68DB6B18460C37BD465DF804C2
S318080027297B704780B483B000AF78607B681B6C18460C3764
S3180800273CBD465DF8047B704780B483B000AF78600B467B34
S3180800274F807B681B8B9BB223F00C039AB27B681A837B6842
S318080027621B8B9AB27B8813439AB27B681A830C37BD465D9C
S31808002775F8047B704700BF80B483B000AF78600B467B801C
S318080027887B681B8B9BB223F440639AB27B681A837B681BD6
S3180800279B8B9AB27B881B029BB213439AB27B681A830C3774
S318080027AEBD465DF8047B704700BF80B483B000AF78600BC4
S318080027C1467B807B689B8B9BB223F00C039AB27B689A83F2
S318080027D47B689B8B9AB27B8813439AB27B689A830C37BDEA
S318080027E7465DF8047B704700BF80B483B000AF78600B4602
S318080027FA7B807B689B8B9BB223F440639AB27B689A837BEC
S3180800280D689B8B9AB27B881B029BB213439AB27B689A83C1
S318080028200C37BD465DF8047B704700BF80B483B000AF7879
S318080028336039603B681A883B685B8813439AB23B689B8858
S3180800284613439AB23B68DB8813439AB23B681B8913439AF0
S31808002859B23B685B8913439AB23B689B8913439AB27B6837
S3180800286CA3F844200C37BD465DF8047B704700BF80B48305
S3180800287FB000AF78607B6800221A807B6800225A807B68A0
S3180800289200229A807B680022DA807B6800221A817B680007
S318080028A5225A817B6800229A810C37BD465DF8047B704724
S318080028B880B483B000AF78600B46FB70FB78002B0CD07B60
S318080028CB68B3F844309BB26FEA43436FEA53439AB27B681B
S318080028DEA3F8442009E07B68B3F844309BB2C3F30E039A41
S318080028F1B27B68A3F844200C37BD465DF8047B704700BFA2
S3180800290480B483B000AF78600B46FB70FB78002B08D07B17
S31808002917689B889BB243F004039AB27B689A8007E07B687A
S3180800292A9B889BB223F004039AB27B689A800C37BD465D16
S3180800293DF8047B704700BF80B483B000AF78600B46FB70E2
S31808002950FB78002B08D07B689B889BB243F001039AB27B9F
S31808002963689A8007E07B689B889BB223F001039AB27B6851
S318080029769A800C37BD465DF8047B704700BF80B483B0002F
S31808002989AF78600B467B8013467B707B78002B08D07B683D
S3180800299C9B899AB27B8813439AB27B689A8109E07B689BA0
S318080029AF899AB27B88DB439BB213409AB27B689A810C37E4
S318080029C2BD465DF8047B704700BF80B483B000AF78600BAE
S318080029D5467B807B687A889A820C37BD465DF8047B7047CE
S318080029E880B485B000AF78600B467B800023FB737B681B03
S318080029FB8A9AB27B8813409BB2002B02D00123FB7301E0D2
S31808002A0E0023FB73FB7B18461437BD465DF8047B704780E9
S31808002A21B483B000AF78600B467B807B88DB439AB27B688A
S31808002A341A820C37BD465DF8047B704780B485B000AF7884
S31808002A47600B467B800023FB730023BB8100237B817B68D0
S31808002A5A1B8A9AB27B881340BB817B689B899AB27B88136F
S31808002A6D407B81BB89002B05D07B89002B02D00123FB7335
S31808002A8001E00023FB73FB7B18461437BD465DF8047B705D
S31808002A934780B483B000AF78600B467B807B88DB439AB234
S31808002AA67B681A820C37BD465DF8047B704780B483B00058
S31808002AB9AF78600B467B8013463B807A883B8813439AB2AE
S31808002ACC7B68A3F848200C37BD465DF8047B704780B4837B
S31808002ADFB000AF78600B467B8013467B707B78002B08D019
S31808002AF27B689B899AB27B8813439AB27B689A8109E07B69
S31808002B05689B899AB27B88DB439BB213409AB27B689A81CC
S31808002B180C37BD465DF8047B704700BF80B483B000AF787E
S31808002B2B600B46FB70FB78002B08D07B689B889BB243F071
S31808002B3E08039AB27B689A8007E07B689B889BB223F008CD
S31808002B51039AB27B689A800C37BD465DF8047B704700BF87
S31808002B6480B483B000AF78607B681B899BB223F007039AD7
S31808002B77B27B681A810C37BD465DF8047B704700BF80B548
S31808002B8A82B000AF78600B467B807B887868194600F0876C
S31808002B9DF87B681B899BB243F007039AB27B681A81083705
S31808002BB0BD4680BD80B584B000AFF860084611461A46034C
S31808002BC3467B810B463B811346FB807B89602B07D13A89A4
S31808002BD6FB88F8681146012200F0BDF906E03A89FB88F8B7
S31808002BE9681146012200F073F97B89F868194600F058F88A
S31808002BFCFB681B899BB243F007039AB2FB681A811037BDD9
S31808002C0F4680BD00BF80B586B000AFF860084611461A46EB
S31808002C2203467B810B463B811346FB800023FB8279893A8F
S31808002C3589FB88F86800F0A7F8FB681B89FB82FB8A23F067
S31808002C480703FB82FB8A43F00703FB82FB8A23F07003FB9F
S31808002C5B82FB8A43F07003FB82FB68FA8A1A811837BD465A
S31808002C6E80BD80B584B000AFF860084611461A4603467BCF
S31808002C81810B463B811346FB8079893A89FB88F86800F038
S31808002C947BF8FB681B899BB243F480439AB2FB681A811004
S31808002CA737BD4680BD80B485B000AF78600B467B80002336
S31808002CBAFB817B681B89FB81FB8923F07003FB81FA897BF6
S31808002CCD881343FB817B68FA891A811437BD465DF8047B69
S31808002CE0704700BF80B483B000AF78600B467B807B689BA5
S31808002CF3889BB223F070039AB27B689A807B689B889AB2CA
S31808002D067B8813439AB27B689A800C37BD465DF8047B7080
S31808002D194700BF80B483B000AF78600B467B807B681B89D2
S31808002D2C9BB223F007039AB27B681A817B681B899AB27B04
S31808002D3F8813439AB27B681A810C37BD465DF8047B7047FA
S31808002D5200BF80B483B000AF78600B467B807B681B899B45
S31808002D65B223F080039AB27B681A817B681B899AB27B8865
S31808002D7813439AB27B681A810C37BD465DF8047B70470049
S31808002D8BBF80B487B000AFF860084611461A4603467B81AC
S31808002D9E0B463B811346FB800023FB82FB681B89FB82FB14
S31808002DB18ADBB2FB82FB881B029AB23B8913439AB27B8917
S31808002DC413439AB2FB8A1343FB82FB68FA8A1A811C37BD62
S31808002DD7465DF8047B704700BF80B487B000AFF86008468B
S31808002DEA11461A4603467B810B463B811346FB800023FBCD
S31808002DFD820023BB8200237B82FB681B89FB82FB681B8B26
S31808002E10BB82FB681B8C7B82FB8A23F00703FB82FA8A7B3F
S31808002E23891343FB82BB8A23F4407323F00303BB82BB8A88
S31808002E3643F4807343F00103BB827B8A23F022037B82FBA8
S31808002E49881B019AB23B8913439AB27B8A13437B82FB6857
S31808002E5CFA8A1A81FB68BA8A1A83FB687A8A1A841C37BDDD
S31808002E6F465DF8047B704700BF80B483B000AF78600B4673
S31808002E82FB70FB78002B08D07B689B889BB243F080039AAB
S31808002E95B27B689A8007E07B689B889BB223F080039AB251
S31808002EA87B689A800C37BD465DF8047B704700BF80B483C5
S31808002EBBB000AF78600B467B807B687A88A3F850200C3740
S31808002ECEBD465DF8047B704700BF80B487B000AFF860081C
S31808002EE14611461A4603467B810B463B811346FB8000238A
S31808002EF4FB820023BB82FB681B8C9BB223F001039AB2FB2B
S31808002F07681A84FB681B8BFB82FB681B8CBB82FB8A23F03E
S31808002F1AF303FB82FB881B019AB23B8913439AB2FB8A133A
S31808002F2D43FB82BB8A23F00A03BB827A89BB8A13439BB236
S31808002F4043F00103BB82FB68FA8A1A83FB68BA8A1A841C17
S31808002F5337BD465DF8047B704780B487B000AFF8600846D8
S31808002F6611461A4603467B810B463B811346FB800023FB4F
S31808002F79820023BB8200237B82FB681B8C9BB223F01003B8
S31808002F8C9AB2FB681A84FB681B8BFB82FB681B8CBB827B8F
S31808002F9F891B017B82FB8A23F440731B051B0DFB82FB88D8
S31808002FB21B039AB2FB8A1343FB823B891B029AB2FB8A1377
S31808002FC543FB82BB8A23F0A003BB827A8ABB8A13439BB207
S31808002FD843F01003BB82FB68FA8A1A83FB68BA8A1A841C70
S31808002FEB37BD465DF8047B704780B487B000AFF860084640
S31808002FFE11461A4603467B810B463B811346FB800023FBB7
S31808003011820023BB8200237B82FB681B8C9BB223F480733B
S318080030249AB2FB681A84FB689B8BFB82FB681B8CBB827B76
S31808003037891B027B82FB8A23F0F303FB82FB881B019AB2DF
S3180800304A3B8913439AB2FB8A1343FB82BB8A23F42063BB0D
S3180800305D827A8ABB8A13439BB243F48073BB82FB68FA8A96
S318080030709A83FB68BA8A1A841C37BD465DF8047B704700FC
S31808003083BF80B487B000AFF860084611461A4603467B81B1
S318080030960B463B811346FB800023FB820023BB8200237B9A
S318080030A982FB681B8C9BB223F480539AB2FB681A84FB6893
S318080030BC9B8BFB82FB681B8CBB827B891B037B82FB8A2342
S318080030CFF440731B051B0DFB823B891B029AB2FB8A13436C
S318080030E2FB82FB881B039AB2FB8A1343FB82BB8A23F400AF
S318080030F5535B045B0CBB827A8ABB8A13439BB243F480536E
S31808003108BB82FB68FA8A9A83FB68BA8A1A841C37BD465D6D
S3180800311BF8047B70478A31000888010020AC010020AC017F
S3180800312E0020B4010020002103E00D4B5B58435004310CA8
S31808003141480D4B42189A42F6D30C4A02E0002342F8043BFA
S318080031540A4B9A42F9D30A48016841F470010160FDF75651
S31808003167FAFEF770F9704700DF8A31000888010020AC0140
S3150800317A0020AC010020B401002088ED00E0FEE73B
S3180800318A007A030A0000000000000000010203040607087E
S3160800319D0900000000010203040102030406070809D8
S7050800144D91
