S00F00006F75742F6D61696E2E733139B9
S3180800000000000220F5030008D5020008E1020008E9020008
S3180800001308F1020008F902000800000000000000000000C6
S31808000026000000000000010300080D03000800000000197C
S31808000039030008250300084904000849040008490400086C
S3180800004C49040008490400084904000849040008490400F2
S3180800005F08490400084904000849040008490400084904D7
S3180800007200084904000849040008490400084904000849C8
S3180800008504000849040008490400084904000849040008FA
S3180800009849040008490400084904000849040008490400A6
S318080000AB084904000849040008490400084904000849048B
S318080000BE000849040008490400084904000849040008497C
S318080000D104000849040008490400084904000849040008AE
S318080000E4490400084904000849040008490400084904005A
S318080000F7084904000849040008490400084904000849043F
S3180800010A000849040008490400084904000849040008492F
S3180800011D0400084904000849040008490400084904000861
S31808000130490400084904000849040008490400084904000D
S3180800014308490400084904000849040008490400084904F2
S3180800015600084904000849040008490400084904000849E3
S318080001690400084904000849040008490400084904000815
S3180800017C49040008490400084904000880B500AF114A1113
S3180800018F4B1B6843F0010313600E4B00229A600D4A0C4BB4
S318080001A21B6823F0847323F480331360094B094A5A60070A
S318080001B54A074B1B6823F480231360044B0022DA6000F042
S318080001C80BF8044B4FF000629A6080BD0038024010300032
S318080001DB2400ED00E080B483B000AF00237B6000233B6040
S318080001EE354A344B1B6843F480331360324B1B6803F4001B
S31808000201333B607B6801337B603B68002B03D17B68B3F5EF
S31808000214A06FF0D12A4B1B6803F40033002B02D001233B7B
S318080002276001E000233B603B68012B42D1234A234B1B6C73
S3180800023A43F080531364214A214B1B6843F4804313601D42
S3180800024D4A1D4B9B6893601B4A1B4B9B6843F400439360AD
S31808000260184A184B9B6843F4A0539360154B174A5A601409
S318080002734A134B1B6843F08073136000BF104B1B6803F016
S318080002860073002BF9D0104B40F205621A600B4A0B4B9B3C
S318080002996823F003039360084A084B9B6843F002039360FD
S318080002AC00BF054B9B6803F00C03082BF9D10C37BD465D7D
S318080002BFF8047B7047003802400070004008544007003CE7
S318080002D2024080B400AFBD465DF8047B704780B400AFFE77
S318080002E5E700BF80B400AFFEE700BF80B400AFFEE700BF44
S318080002F880B400AFFEE700BF80B400AFBD465DF8047B7034
S3180800030B4780B400AFBD465DF8047B704780B400AFBD4633
S3180800031E5DF8047B704780B400AF044B1B680133034A13EA
S3180800033160BD465DF8047B704700BFAC040020B0B483B097
S3180800034400AF00237B600A4A0A4B14461D460FCD206061C8
S3180800035760A260E36028682061AB88AA79A3821346A375E3
S3180800036A7B6801337B60FBE700BFB0040020580400089017
S3180800037DB585B000AF7860144B1B68002B02D1124B134A54
S318080003901A60114B1B68FB60EFF308831C462346BB600D38
S318080003A34B1A687B681A44BB689A4207D900F04CF80246D0
S318080003B60C2313604FF0FF3306E0054B1A687B681344031E
S318080003C94A1360FB6818461437BD4690BD00BFA80400206F
S318080003DC1405002078040008000000204404002044040073
S318080003EF2014050020002103E00D4B5B58435004310C4869
S318080004020D4B42189A42F6D30C4A02E0002342F8043B0AA4
S318080004154B9A42F9D30A48016841F470010160FFF7B0FE6D
S31808000428FFF78AFF704700DF7804000800000020440400B2
S3180800043B20440400201405002088ED00E0FEE70000014B59
S3180800044E1868704700BF4004002057656C636F6D652074D3
S318080004616F20456D62656464656420430A00004300000031
S30908000474180000203E
S31808000478007A030A000000000000000001020304060708BD
S3180800048B090000000000000000040300206C030020D403BA
S3180800049E002000000000000000000000000000000000001D
S318080004B1000000000000000000000000000000000000002A
S318080004C4700400080000000000000000000000000000009B
S318080004D70000000000000000000000000000000000000004
S318080004EA00000000000000000000000000000000000000F1
S318080004FD00000000000000000000000000000000000000DE
S3180800051000000000000000000000000000000000000000CA
S3180800052300000000000000000000000000000000000000B7
S31808000536000001000000000000000E33CDAB34126DE6EC65
S31808000549DE05000B000000000000000000000000000000A3
S3180800055C000000000000000000000000000000000000007E
S3180800056F000000000000000000000000000000000000006B
S318080005820000000000000000000000000000000000000058
S318080005950000000000000000000000000000000000000045
S30E080008B3000000000018000020F6
S70508000341AE
