S00F00006F75742F6D61696E2E733139B9
S31808000000000002207D030008DD020008EB020008F1020066
S3180800001308F7020008FD02000800000000000000000000BC
S318080000260000000000000303000811030008000000001F70
S318080000390300082D030008D1030008D1030008D1030008CF
S3180800004CD1030008D1030008D1030008D1030008D103004F
S3180800005F08D1030008D1030008D1030008D1030008D10334
S318080000720008D1030008D1030008D1030008D1030008D124
S31808000085030008D1030008D1030008D1030008D1030008DF
S31808000098D1030008D1030008D1030008D1030008D1030003
S318080000AB08D1030008D1030008D1030008D1030008D103E8
S318080000BE0008D1030008D1030008D1030008D1030008D1D8
S318080000D1030008D1030008D1030008D1030008D103000893
S318080000E4D1030008D1030008D1030008D1030008D10300B7
S318080000F708D1030008D1030008D1030008D1030008D1039C
S3180800010A0008D1030008D1030008D1030008D1030008D18B
S3180800011D030008D1030008D1030008D1030008D103000846
S31808000130D1030008D1030008D1030008D1030008D103006A
S3180800014308D1030008D1030008D1030008D1030008D1034F
S318080001560008D1030008D1030008D1030008D1030008D13F
S31808000169030008D1030008D1030008D1030008D1030008FA
S3180800017CD1030008D1030008D103000880B500AF124B1B72
S3180800018F68114A43F0010313600F4B00229A600E4B1B6890
S318080001A20D4A23F0847323F4803313600A4B0A4A5A600833
S318080001B54B1B68074A23F480231360054B0022DA6000F041
S318080001C80DF8054B4FF000629A6000BF80BD00BF00380231
S318080001DB401030002400ED00E080B483B000AF00237B607E
S318080001EE00233B60364B1B68354A43F480331360334B1BB9
S318080002016803F400333B607B6801337B603B68002B03D11B
S318080002147B68B3F5A06FF0D12B4B1B6803F40033002B021E
S31808000227D001233B6001E000233B603B68012B42D1244B37
S3180800023A1B6C234A43F080531364224B1B68214A43F48020
S3180800024D4313601E4B1E4A9B6893601C4B9B681B4A43F40D
S3180800026000439360194B9B68184A43F4A0539360164B18E8
S318080002734A5A60154B1B68144A43F08073136000BF114B71
S318080002861B6803F00073002BF9D0114B40F205621A600CFF
S318080002994B9B680B4A23F003039360094B9B68084A43F0B9
S318080002AC0203936000BF064B9B6803F00C03082BF9D10027
S318080002BFBF0C37BD465DF8047B704700BF003802400070E5
S318080002D2004008544007003C024080B400AF00BFBD465DA8
S318080002E5F8047B704780B400AFFEE780B400AFFEE780B406
S318080002F800AFFEE780B400AFFEE780B400AF00BFBD465D87
S3180800030BF8047B704780B400AF00BFBD465DF8047B704773
S3180800031E80B400AF00BFBD465DF8047B704780B400AF04A7
S318080003314B1B680133034A136000BFBD465DF8047B70479C
S318080003441C00002080B483B000AF00237B6003233B607B0C
S318080003576801337B60014B1B883B60F8E718000020D20398
S3180800036A0008000000201C0000201C000020200000200092
S3180800037D2103E00D4B5B58435004310C480D4B42189A42A6
S31808000390F6D30C4A02E0002342F8043B0A4B9A42F9D30AA8
S318080003A348016841F470010160FFF7ECFEFFF7CAFF70472B
S318080003B600DFD2030008000000201C0000201C00002020B2
S30E080003C900002088ED00E0FEE7C3
S318080003D2007A030A00000000000000000102030406070864
S30E080003E509EFBE00003713000001
S70508000349A6
