:020000040800F2
:10000000000002208D030008DD020008ED02000858
:10001000F5020008FD0200080503000800000000CA
:100020000000000000000000000000000D030008B8
:100030001D030008000000002D0300083D03000818
:10004000E1030008E1030008E1030008E103000800
:10005000E1030008E1030008E1030008E1030008F0
:10006000E1030008E1030008E1030008E1030008E0
:10007000E1030008E1030008E1030008E1030008D0
:10008000E1030008E1030008E1030008E1030008C0
:10009000E1030008E1030008E1030008E1030008B0
:1000A000E1030008E1030008E1030008E1030008A0
:1000B000E1030008E1030008E1030008E103000890
:1000C000E1030008E1030008E1030008E103000880
:1000D000E1030008E1030008E1030008E103000870
:1000E000E1030008E1030008E1030008E103000860
:1000F000E1030008E1030008E1030008E103000850
:10010000E1030008E1030008E1030008E10300083F
:10011000E1030008E1030008E1030008E10300082F
:10012000E1030008E1030008E1030008E10300081F
:10013000E1030008E1030008E1030008E10300080F
:10014000E1030008E1030008E1030008E1030008FF
:10015000E1030008E1030008E1030008E1030008EF
:10016000E1030008E1030008E1030008E1030008DF
:10017000E1030008E1030008E1030008E1030008CF
:10018000E1030008E103000880B500AF124A124BFA
:100190001B6843F0010313600F4B00229A600E4A64
:1001A0000D4B1B6823F0847323F4803313600A4BD8
:1001B0000A4A5A60084A084B1B6823F480231360DC
:1001C000054B0022DA6000F00DF8054B4FF000629D
:1001D0009A6000BF80BD00BF00380240103000248C
:1001E00000ED00E080B483B000AF00237B6000230B
:1001F0003B60364A354B1B6843F480331360334B06
:100200001B6803F400333B607B6801337B603B6811
:10021000002B03D17B68B3F5A06FF0D12B4B1B688B
:1002200003F40033002B02D001233B6001E00023E4
:100230003B603B68012B42D1244A244B1B6C43F0AA
:1002400080531364224A224B1B6843F4804313609B
:100250001E4A1E4B9B6893601C4A1C4B9B6843F4D0
:1002600000439360194A194B9B6843F4A053936071
:10027000164B184A5A60154A144B1B6843F080739A
:10028000136000BF114B1B6803F00073002BF9D003
:10029000114B40F205621A600C4A0C4B9B6823F02C
:1002A00003039360094A094B9B6843F00203936080
:1002B00000BF064B9B6803F00C03082BF9D100BF6D
:1002C0000C37BD465DF8047B704700BF0038024024
:1002D0000070004008544007003C024080B400AF6A
:1002E00000BFBD465DF8047B704700BF80B400AF1F
:1002F000FEE700BF80B400AFFEE700BF80B400AFF0
:10030000FEE700BF80B400AFFEE700BF80B400AFDF
:1003100000BFBD465DF8047B704700BF80B400AFEE
:1003200000BFBD465DF8047B704700BF80B400AFDE
:1003300000BFBD465DF8047B704700BF80B400AFCE
:10034000044B1B680133034A136000BFBD465DF8D0
:10035000047B70471C00002080B483B000AF0023F2
:100360007B6003233B607B6801337B60014B1B8810
:100370003B60F8E718000020E203000800000020BE
:100380001C0000201C00002020000020002103E0B1
:100390000D4B5B58435004310C480D4B42189A42A8
:1003A000F6D30C4A02E0002342F8043B0A4B9A427F
:1003B000F9D30A48016841F470010160FFF7E4FED7
:1003C000FFF7CAFF704700DFE203000800000020CB
:1003D0001C0000201C0000202000002088ED00E010
:0203E000FEE736
:1003E200007A030A0000000000000000010203047A
:0C03F20006070809EFBE000037130000EA
:040000050800035993
:00000001FF
