S00F00006F75742F6D61696E2E733139B9
S3180800000000000220B503000819030008250300082D030079
S3180800001308350300083D030008000000000000000000003C
S318080000260000000000004503000851030008000000005DB0
S3180800003903000869030008090400080904000809040008E8
S3180800004C0904000809040008090400080904000809040032
S3180800005F0809040008090400080904000809040008090417
S318080000720008090400080904000809040008090400080908
S3180800008504000809040008090400080904000809040008FA
S3180800009809040008090400080904000809040008090400E6
S318080000AB08090400080904000809040008090400080904CB
S318080000BE00080904000809040008090400080904000809BC
S318080000D104000809040008090400080904000809040008AE
S318080000E4090400080904000809040008090400080904009A
S318080000F7080904000809040008090400080904000809047F
S3180800010A000809040008090400080904000809040008096F
S3180800011D0400080904000809040008090400080904000861
S31808000130090400080904000809040008090400080904004D
S318080001430809040008090400080904000809040008090432
S318080001560008090400080904000809040008090400080923
S318080001690400080904000809040008090400080904000815
S3180800017C09040008090400080904000880B500AF124A12D1
S3180800018F4B1B6843F0010313600F4B00229A600E4A0D4BB1
S318080001A21B6823F0847323F4803313600A4B0A4A5A600807
S318080001B54A084B1B6823F480231360054B0022DA6000F040
S318080001C80DF8054B4FF000629A6000F081F880BD00380246
S318080001DB401030002400ED00E080B483B000AF00237B607E
S318080001EE00233B60354A344B1B6843F480331360324B1BBC
S318080002016803F400333B607B6801337B603B68002B03D11B
S318080002147B68B3F5A06FF0D12A4B1B6803F40033002B021F
S31808000227D001233B6001E000233B603B68012B42D1234A39
S3180800023A234B1B6C43F080531364214A214B1B6843F48020
S3180800024D4313601D4A1D4B9B6893601B4A1B4B9B6843F410
S3180800026000439360184A184B9B6843F4A0539360154B17EB
S318080002734A5A60144A134B1B6843F08073136000BF104B74
S318080002861B6803F00073002BF9D0104B40F205621A600B01
S318080002994A0B4B9B6823F003039360084A084B9B6843F0BA
S318080002AC0203936000BF054B9B6803F00C03082BF9D10C1C
S318080002BF37BD465DF8047B704700380240007000400854D3
S318080002D24007003C024080B483B000AF0B4B7B600B4B3B6E
S318080002E56007E03B681A1D3A607A68111D796012681A6060
S318080002F83B68064A9342F3D30C37BD465DF8047B70470086
S3180800030BBF34040008180000203400002080B400AFBD4660
S3180800031E5DF8047B704780B400AFFEE700BF80B400AFFECB
S31808000331E700BF80B400AFFEE700BF80B400AFFEE700BFF7
S3180800034480B400AFBD465DF8047B704780B400AFBD465DE4
S31808000357F8047B704780B400AFBD465DF8047B704780B4B2
S3180800036A00AF044B1B680133034A1360BD465DF8047B70B6
S3180800037D4700BF1400002080B582B000AF00237B607B682E
S3180800039001337B603B1D184600F03AF8F7E700BF200400A4
S318080003A30800000020140000201400002018000020002150
S318080003B603E00D4B5B58435004310C480D4B42189A42F698
S318080003C9D30C4A02E0002342F8043B0A4B9A42F9D30A481D
S318080003DC016841F470010160FFF7D0FEFFF7CCFF70470054
S318080003EFDF20040008000000201400002014000020180042
S31808000402002088ED00E0FEE700000000000001B4024884FC
S310080004154601BC604700BF190000202C
S31808000420007A030A00000000000000000102030406070815
S3060800043309B1
S3180800043480B483B000AF78607B681B685A1C7B681A600C74
S30E0800044737BD465DF8047B7047D9
S705080003856A
