:020000040800F2
:1000000000000220ED2F0008550400085D040008E0
:10001000D9040008E1040008E90400080000000019
:10002000000000000000000000000000F1040008D3
:10003000F90400080000000005050008110500088B
:1000400041300008413000084130000841300008CC
:1000500041300008413000084130000841300008BC
:1000600041300008413000084130000841300008AC
:10007000413000084130000841300008413000089C
:10008000413000084130000841300008413000088C
:10009000413000084130000841300008413000087C
:1000A000413000084130000841300008413000086C
:1000B000413000084130000841300008413000085C
:1000C000413000084130000841300008413000084C
:1000D000413000084130000841300008413000083C
:1000E000413000084130000841300008413000082C
:1000F000413000084130000841300008413000081C
:10010000413000084130000841300008413000080B
:1001100041300008413000084130000841300008FB
:1001200041300008413000084130000841300008EB
:1001300041300008413000084130000841300008DB
:1001400041300008413000084130000841300008CB
:1001500041300008413000084130000841300008BB
:1001600041300008413000084130000841300008AB
:10017000413000084130000841300008413000089B
:100180004130000841300008044B05481B1A062B7B
:1001900002D9044B03B11847704700BFFB09002088
:1001A000F80900200000000005490648091A8910D6
:1001B00001EBD171491002D0034B03B118477047CE
:1001C000F8090020F80900200000000010B5064CD6
:1001D000237843B9FFF7D8FF044B13B10448AFF3BA
:1001E00000800123237010BDFC09002000000000E6
:1001F000E89C000808B5084B1BB108480849AFF354
:1002000000800848036813B9BDE80840CCE7064BF6
:10021000002BF9D09847F7E700000000E89C0008A1
:10022000000A0020F40900200000000016202EA182
:10023000ABBE2D484168334A11600168002901D1E5
:100240002F4901608168C268002900D08D46002ACC
:1002500001D002F5807A00218B460F462348244ABC
:10026000121A02F045FA01F00DFB152022A1ABBED7
:100270002149002001B40B780131002B15D0202B2F
:10028000F9D0222B01D0272B01D11A0001E0202226
:10029000013902B401300B780131002B05D09A42AC
:1002A000F9D100224B1E1A70E5E769460200920060
:1002B0006A446B469A4206D9043A14681D68156070
:1002C0001C600433F6E76C460725AC43A5460400E2
:1002D0000D00084801F0C6FD01F050FF2000290084
:1002E00000F024F901F0CAFD04000020FC09002000
:1002F000100B0020B120000814000020FF000000B7
:10030000100B00202801002080B500AF114A114BCE
:100310001B6843F0010313600E4B00229A600D4AE4
:100320000C4B1B6823F0847323F480331360094B58
:10033000094A5A60074A074B1B6823F4802313605D
:10034000044B0022DA6000F00BF8044B4FF000621F
:100350009A6080BD003802401030002400ED00E0BB
:1003600080B483B000AF00237B6000233B60354A3C
:10037000344B1B6843F480331360324B1B6803F427
:1003800000333B607B6801337B603B68002B03D10B
:100390007B68B3F5A06FF0D12A4B1B6803F40033E0
:1003A000002B02D001233B6001E000233B603B684F
:1003B000012B42D1234A234B1B6C43F0805313641F
:1003C000214A214B1B6843F4804313601D4A1D4B97
:1003D0009B6893601B4A1B4B9B6843F400439360EC
:1003E000184A184B9B6843F4A0539360154B174A67
:1003F0005A60144A134B1B6843F08073136000BFAC
:10040000104B1B6803F00073002BF9D0104B40F227
:1004100005621A600B4A0B4B9B6823F00303936041
:10042000084A084B9B6843F00203936000BF054BEA
:100430009B6803F00C03082BF9D10C37BD465DF81F
:10044000047B7047003802400070004008544007A9
:10045000003C024080B400AFFEE700BF80B491B022
:1004600000AF78607B681B68FB637B6804331B68A4
:10047000BB637B6808331B687B637B680C331B683A
:100480003B637B6810331B68FB627B6814331B681B
:10049000BB627B6818331B687B627B681C331B68FC
:1004A0003B62084B1B68FB61074B1B68BB61074B3A
:1004B0001B687B61064B1B683B61064B1B68FB603E
:1004C000FEE700BF38ED00E028ED00E02CED00E095
:1004D00030ED00E03CED00E080B400AFFEE700BF8F
:1004E00080B400AFFEE700BF80B400AFFEE700BFFE
:1004F00080B400AFFEE700BF80B400AFBD465DF83A
:10050000047B704780B400AFBD465DF8047B704744
:1005100080B400AF044B1B680133034A1360BD462F
:100520005DF8047B704700BF0C0B002080B59AB0CB
:1005300000AF00237B6601F0A5F93B461846084949
:1005400002F0C6FD3B460748194602F08BFD7B6E64
:1005500001337B660448796E02F084FDF7E700BF43
:100560008C9A0008A49A0008A89A0008649D0008C4
:1005700000000020EC090020FC090020100B0020E6
:10058000844641EA000313F003036DD1403A41D39E
:1005900051F8043B40F8043B51F8043B40F8043B5D
:1005A00051F8043B40F8043B51F8043B40F8043B4D
:1005B00051F8043B40F8043B51F8043B40F8043B3D
:1005C00051F8043B40F8043B51F8043B40F8043B2D
:1005D00051F8043B40F8043B51F8043B40F8043B1D
:1005E00051F8043B40F8043B51F8043B40F8043B0D
:1005F00051F8043B40F8043B51F8043B40F8043BFD
:1006000051F8043B40F8043B51F8043B40F8043BEC
:10061000403ABDD2303211D351F8043B40F8043B8C
:1006200051F8043B40F8043B51F8043B40F8043BCC
:1006300051F8043B40F8043B103AEDD20C3205D39C
:1006400051F8043B40F8043B043AF9D2043208D094
:10065000D2071CBF11F8013B00F8013B01D30B8806
:1006600003806046704700BF082A13D38B078DD0E4
:1006700010F003038AD0C3F10403D21ADB071CBFB6
:1006800011F8013B00F8013B80D331F8023B20F820
:10069000023B7BE7043AD9D3013A11F8013B00F859
:1006A000013BF9D20B7803704B7843708B788370E1
:1006B00060467047000000000000000000000000DD
:1006C000A2EB0300704700BF02780B78012A28BF15
:1006D0009A42F5D16DE9044540EA0104CDE902678B
:1006E0006FF0000C4FEA447212B380EA010414F078
:1006F000070F6AD100F0070420F0070004F003059B
:1007000021F007014FEAC505F0E8042314F0040FB7
:10071000F1E804670CFA05F462EA040266EA0406EA
:100720000AD063EA0403624667EA0407664603E008
:10073000F0E80423F1E8046782FA4CF582EA060443
:10074000A4FA8CF46CBB83FA4CF583EA0705A5FA8E
:100750008CF595B950E9022351E9026782FA4CF50C
:1007600082EA0604A4FA8CF483FA4CF583EA0705BE
:10077000A5FA8CF52543DBD09CB92DBAB5FA85F4E2
:1007800024F0070427FA04F1DDE9026723FA04F3F1
:1007900003F0FF0001F0FF01FDE80445A0EB0100BC
:1007A000704724BAB4FA84F424F0070426FA04F15A
:1007B000DDE9026722FA04F202F0FF0001F0FF0116
:1007C000FDE80445A0EB0100704714F0030F3CD195
:1007D00010F0030428D150F8082B51F8083B82FA96
:1007E0004CF582EA0305A5FA8CF55DB950F8042CA6
:1007F00051F8043C82FA4CF582EA0305A5FA8CF51F
:10080000002DE8D02DBAB5FA85F424F0070423FAB8
:1008100004F122FA04F202F0FF0001F0FF01FDE80A
:100820000445A0EB010070474FEAC40420F0030028
:1008300050F8082B21F0030151F8083B0CFA04F49E
:1008400062EA040263EA0403C9E710F003041AD061
:10085000A1EB040120F00300E40750F8042B06D0BC
:100860000FD28B785FFAA2F4E41A06D12BB1CB78C1
:100870005FFAB2F4E41A00D11BB920465DF8104BC0
:10088000704701F1040150F8042BCC0721F003015B
:1008900051F8043B48D824D222F07F4482FA4CF528
:1008A00094EA1325A5FA8CF50AD165B951F8043BF1
:1008B00084EA0204B4EB036F0ED150F8042BEBE78B
:1008C0004FEA132355E035F07F454DD10878FDE818
:1008D0000445C0F1000070474FEA126203F0FF03C5
:1008E00047E002EA1C4482FA4CF594EA1345A5FA63
:1008F0008CF50AD165B951F8043B84EA0204B4EBE3
:10090000034F0CD150F8042BEBE74FEA134330E0D0
:1009100015EA1C4528D10B884FEA124229E04FEA1C
:10092000124203EA1C4324E002F0FF0482FA4CF571
:1009300094EA1365A5FA8CF50AD165B951F8043B20
:1009400084EA0204B4EB032F09D150F8042BEBE73F
:100950004FEA13630DE015F0FF0F05D10B684FEA66
:10096000122223F07F4304E04FF00000FDE804452D
:10097000704712BA1BBA82FA4CF482EA0304A4FA52
:100980008CF5B5FA85F402FA04F203FA04F34FEA9F
:100990001260FDE80445A0EB13607047AFF30080E0
:1009A00081F0004102E000BF83F0004330B54FEA20
:1009B00041044FEA430594EA050F08BF90EA020F8D
:1009C0001FBF54EA000C55EA020C7FEA645C7FEA20
:1009D000655C00F0E2804FEA5454D4EB5555B8BF43
:1009E0006D420CDD2C4480EA020281EA030382EAB4
:1009F000000083EA010180EA020281EA0303362D46
:100A000088BF30BD11F0004F4FEA01314FF4801C18
:100A10004CEA113102D0404261EB410113F0004F2A
:100A20004FEA03334CEA133302D0524263EB4303E1
:100A300094EA050F00F0A780A4F10104D5F1200E7F
:100A40000DDB02FA0EFC22FA05F2801841F10001DA
:100A500003FA0EF2801843FA05F359410EE0A5F1AE
:100A600020050EF1200E012A03FA0EFC28BF4CF0DF
:100A7000020C43FA05F3C01851EBE37101F0004595
:100A800007D54FF0000EDCF1000C7EEB00006EEBA2
:100A90000101B1F5801F1BD3B1F5001F0CD349082C
:100AA0005FEA30004FEA3C0C04F101044FEA445283
:100AB00012F5800F80F09A80BCF1004F08BF5FEA0A
:100AC000500C50F1000041EB045141EA050130BDEA
:100AD0005FEA4C0C404141EB010111F4801FA4F18D
:100AE0000104E9D191F0000F04BF01460020B1FAE2
:100AF00081F308BF2033A3F10B03B3F120020CDA1A
:100B00000C3208DD02F1140CC2F10C0201FA0CF0F7
:100B100021FA02F10CE002F11402D8BFC2F1200C5C
:100B200001FA02F120FA0CFCDCBF41EA0C01904012
:100B3000E41AA2BF01EB0451294330BD6FEA04045B
:100B40001F3C1CDA0C340EDC04F11404C4F1200246
:100B500020FA04F001FA02F340EA030021FA04F358
:100B600045EA030130BDC4F10C04C4F1200220FAAF
:100B700002F001FA04F340EA0300294630BD21FAED
:100B800004F0294630BD94F0000F83F4801306BFB3
:100B900081F480110134013D4EE77FEA645C18BFA7
:100BA0007FEA655C29D094EA050F08BF90EA020F3E
:100BB00005D054EA000C04BF1946104630BD91EA36
:100BC000030F1EBF0021002030BD5FEA545C05D139
:100BD0004000494128BF41F0004130BD14F5800478
:100BE0003CBF01F5801130BD01F0004545F0FE41EC
:100BF00041F470014FF0000030BD7FEA645C1ABF21
:100C0000194610467FEA655C1CBF0B46024650EA57
:100C1000013406BF52EA033591EA030F41F4002183
:100C200030BD00BF90F0000F04BF0021704730B509
:100C30004FF4806404F132044FF000054FF00001DE
:100C400050E700BF90F0000F04BF0021704730B59F
:100C50004FF4806404F1320410F0004548BF404274
:100C60004FF000013EE700BF42004FEAE2014FEAC9
:100C700031014FEA02701FBF12F07F4393F07F4FA4
:100C800081F06051704792F0000F14BF93F07F4FD6
:100C9000704730B54FF4607401F0004521F0004119
:100CA00020E700BF50EA010208BF704730B54FF09F
:100CB00000050AE050EA010208BF704730B511F0A4
:100CC000004502D5404261EB41014FF4806404F1DC
:100CD00032045FEA915C3FF4DCAE4FF003025FEA5E
:100CE000DC0C18BF03325FEADC0C18BF033202EBE6
:100CF000DC02C2F1200300FA03FC20FA02F001FA40
:100D000003FE40EA0E0021FA02F11444C1E600BFDE
:100D100070B54FF0FF0C4CF4E06C1CEA11541DBF91
:100D20001CEA135594EA0C0F95EA0C0F00F0DEF85C
:100D30002C4481EA030621EA4C5123EA4C5350EA41
:100D4000013518BF52EA033541F4801143F4801392
:100D500038D0A0FB02CE4FF00005E1FB02E506F023
:100D60000042E0FB03E54FF00006E1FB03569CF078
:100D7000000F18BF4EF0010EA4F1FF04B6F5007F7E
:100D800064F5407404D25FEA4E0E6D4146EB0606F0
:100D900042EAC62141EA55514FEAC52040EA5E5079
:100DA0004FEACE2EB4F1FD0C88BFBCF5E06F1ED823
:100DB000BEF1004F08BF5FEA500E50F1000041EB5A
:100DC000045170BD06F0004646EA010140EA020007
:100DD00081EA0301B4EB5C04C2BFD4EB0C0541EA29
:100DE000045170BD41F480114FF0000E013C00F33E
:100DF000AB8014F1360FDEBF002001F0004170BD62
:100E0000C4F10004203C35DA0C341BDC04F114047A
:100E1000C4F1200500FA05F320FA04F001FA05F206
:100E200040EA020001F0004221F0004110EBD370D3
:100E300021FA04F642EB06015EEA430E08BF20EAFF
:100E4000D37070BDC4F10C04C4F1200500FA04F3A2
:100E500020FA05F001FA04F240EA020001F0004134
:100E600010EBD37041F100015EEA430E08BF20EAA7
:100E7000D37070BDC4F1200500FA05F24EEA020EEF
:100E800020FA04F301FA05F243EA020321FA04F01E
:100E900001F0004121FA04F220EA020000EBD370D5
:100EA0005EEA430E08BF20EAD37070BD94F0000FD5
:100EB0000FD101F00046400041EB010111F4801F09
:100EC00008BF013CF7D041EA060195F0000F18BFBA
:100ED000704703F00046520043EB030313F4801FF6
:100EE00008BF013DF7D043EA0603704794EA0C0FB0
:100EF0000CEA135518BF95EA0C0F0CD050EA4106C6
:100F000018BF52EA4306D1D181EA030101F0004142
:100F10004FF0000070BD50EA410606BF104619466A
:100F200052EA430619D094EA0C0F02D150EA013676
:100F300013D195EA0C0F05D152EA03361CBF1046B7
:100F400019460AD181EA030101F0004141F0FE4156
:100F500041F470014FF0000070BD41F0FE4141F4DA
:100F6000780170BD70B54FF0FF0C4CF4E06C1CEADA
:100F700011541DBF1CEA135594EA0C0F95EA0C0F8F
:100F800000F0A7F8A4EB050481EA030E52EA03354A
:100F90004FEA013100F088804FEA03334FF080556B
:100FA00045EA131343EA12634FEA022245EA111598
:100FB00045EA10654FEA00260EF000419D4208BF49
:100FC000964244F1FD0404F5407402D25B084FEAF6
:100FD0003202B61A65EB03055B084FEA32024FF4A2
:100FE00080104FF4002CB6EB020E75EB030E22BFFF
:100FF000B61A754640EA0C005B084FEA3202B6EBBF
:10100000020E75EB030E22BFB61A754640EA5C006D
:101010005B084FEA3202B6EB020E75EB030E22BFFD
:10102000B61A754640EA9C005B084FEA3202B6EBFE
:10103000020E75EB030E22BFB61A754640EADC00BD
:1010400055EA060E18D04FEA051545EA16754FEA1F
:1010500006164FEAC30343EA52734FEAC2025FEA3D
:101060001C1CC0D111F4801F0BD141EA00014FF0CC
:1010700000004FF0004CB6E711F4801F04BF01439D
:101080000020B4F1FD0C88BFBCF5E06F3FF6AFAEB9
:10109000B5EB030C04BFB6EB020C5FEA500C50F149
:1010A000000041EB045170BD0EF0004E4EEA1131CC
:1010B00014EB5C04C2BFD4EB0C0541EA045170BDD3
:1010C00041F480114FF0000E013C90E645EA060E17
:1010D0008DE60CEA135594EA0C0F08BF95EA0C0F45
:1010E0003FF43BAF94EA0C0F0AD150EA01347FF48D
:1010F00034AF95EA0C0F7FF425AF104619462CE764
:1011000095EA0C0F06D152EA03353FF4FDAE1046C6
:10111000194622E750EA410618BF52EA43067FF417
:10112000C5AE50EA41047FF40DAF52EA43057FF4A7
:10113000EBAE12E74FF0FF3C06E000BF4FF0010CB2
:1011400002E000BF4FF0010C4DF804CD4FEA410C16
:101150007FEA6C5C4FEA430C18BF7FEA6C5C1BD0E3
:1011600001B050EA410C0CBF52EA430C91EA030F64
:1011700002BF90EA020F0020704710F1000F91EAC1
:10118000030F58BF994208BF90422CBFD8176FEA8F
:10119000E37040F0010070474FEA410C7FEA6C5C5D
:1011A00002D150EA013C07D14FEA430C7FEA6C5C64
:1011B000D6D152EA033CD3D05DF8040B704700BF90
:1011C0008446104662468C461946634600E000BFDE
:1011D00001B5FFF7B7FF002848BF10F1000F01BDB0
:1011E0004DF808EDFFF7F4FF0CBF012000205DF87B
:1011F00008FB00BF4DF808EDFFF7EAFF34BF012000
:1012000000205DF808FB00BF4DF808EDFFF7E0FF98
:1012100094BF012000205DF808FB00BF4DF808EDE9
:10122000FFF7CEFF94BF012000205DF808FB00BF50
:101230004DF808EDFFF7C4FF34BF012000205DF832
:1012400008FB00BF4FEA410212F5001215D211D57A
:101250006FF47873B3EB625212D94FEAC12343F0B3
:10126000004343EA505311F0004F23FA02F018BF35
:10127000404270474FF00000704750EA013005D1FE
:1012800011F0004008BF6FF0004070474FF00000C1
:10129000704700BF53B94AB9002908BF00281CBFD6
:1012A0004FF0FF314FF0FF3000F03CB882B0EC4619
:1012B0002DE9005000F01EF8DDF804E002B00CBC8F
:1012C000704700BF2DE9F041069C154606460F46C3
:1012D000984600F029F805FB01F300FB0838A5FB50
:1012E0000023B21A434467EB0303C4E90023BDE8BB
:1012F000F08100BF2DE9F041069C904606460F465E
:101300001D4600F05FF900FB05F5A0FB082308FB74
:101310000155B21A2B4467EB0303C4E90023BDE86F
:10132000F08100BF704700BF00292DE9F043C0F2F3
:10133000A6800026002BC0F29C80884694469E46DC
:10134000154604460F46002B3DD18A4259D9B2FAC0
:1013500082F33BB1C3F120029F4020FA02F29D408C
:1013600017439C40290C220CB7FBF1FEA8B201FBED
:101370001E7742EA074700FB0EF3BB420AD97F19EA
:101380000EF1FF3280F00581BB4240F20281AEF1E6
:10139000020E2F44FF1AA4B2B7FBF1F301FB13773F
:1013A00044EA074700FB03F0B84208D97F1903F16C
:1013B000FF3280F0F080B84240F2ED80023B43EA19
:1013C0000E43002203E08B420FD900221346341C47
:1013D00018BF012460424FF0000565EB45015840FD
:1013E000514000196941BDE8F083B3FA83F2002A45
:1013F00040F086808B4202D3844500F2DB800123DB
:10140000E5E712B90123B3FBF2F5B5FA85F0002840
:101410003BD1781B4FEA154E1FFA85FC0122B0FB29
:10142000FEF8210C0EFB180741EA07470CFB08F3F6
:10143000BB4207D97F1908F1FF3102D2BB4200F24B
:10144000BD808846FF1AA4B2B7FBFEF30EFB1377EC
:1014500044EA07470CFB03FCBC4507D97F1903F19D
:10146000FF3102D2BC4500F2A7800B4643EA084395
:10147000ADE752426FEA060663EB43035DE7404285
:1014800061EB41014FF0FF3654E7C0F1200224FA2E
:1014900002F107FA00F385404FEA154ED740194391
:1014A000B7FBFEF20B0C0EFB12771FFA85FC43EA2A
:1014B00007430CFB02F79F4204FA00F407D95B19BB
:1014C00002F1FF3074D29F4272D9023A2B44DF1BE3
:1014D00089B2B7FBFEF80EFB187341EA03430CFB1D
:1014E00008F79F4208D95B1908F1FF315CD29F428F
:1014F0005AD9A8F102082B44D81B48EA02428EE7C9
:10150000C2F120032CFA03F10EFA02FE20FA03F7CF
:1015100041EA0E0E08FA02F028FA03F14FEA1E45DE
:101520003843B1FBF5F8030C05FB18111FFA8EF7D1
:1015300043EA014107FB08F38B420CFA02FC09D98C
:1015400011EB0E0108F1FF3930D28B422ED9A8F1F0
:1015500002087144C91A80B2B1FBF5F305FB1311FF
:1015600040EA014107FB03F78F4208D911EB0E0156
:1015700003F1FF3016D28F4214D9023B714443EA83
:101580000843C91BA3FB0C89494509D305D0002298
:101590001DE79646FEE6134611E794404445F6D211
:1015A000013BF4E70346EAE78846A5E7C846D1E7EA
:1015B00002468CE713460AE7023B57E7A8F1020808
:1015C0002F443FE72DE9F041002B44D18A421546D4
:1015D00004464FD9B2FA82F70E464FB1C7F1200345
:1015E000B94020FA03F602FA07F50E4300FA07F4B1
:1015F0004FEA154E230CB6FBFEF0AFB20EFB1061A6
:1016000043EA014307FB00F1994209D95B1900F154
:10161000FF3280F0EC80994240F2E98002382B449E
:101620005A1AA4B2B2FBFEF30EFB132244EA0242A2
:1016300007FB03F7974208D9521903F1FF3180F0F5
:10164000D880974240F2D580023B43EA0040002612
:101650003146BDE8F0818B4247D8B3FA83F6002EBD
:1016600048D18B4202D3824200F2CD800120314624
:10167000BDE8F08112B90125B5FBF2F5B5FA85F8A0
:10168000B8F1000F77D14A1B4FEA154EAFB20126D1
:10169000B2FBFEF0230C0EFB102143EA014107FBD5
:1016A00000F38B4207D9491900F1FF3202D28B4275
:1016B00000F2BA801046C91AA4B2B1FBFEF30EFBC9
:1016C000131144EA014407FB03F7A74208D9641940
:1016D00003F1FF3280F08F80A74240F28C80023B02
:1016E00043EA00403146BDE8F081002630463146ED
:1016F000BDE8F081C6F1200422FA04F5B3402B4383
:1017000020FA04FC01FA06F721FA04F54FEA134E19
:101710004CEA0707B5FBFEF8390C0EFB18551FFA0B
:1017200083FC41EA05450CFB08F1A94202FA06F2E6
:1017300004D9ED1808F1FF3467D3A0466D1ABFB283
:10174000B5FBFEF40EFB145547EA05410CFB04FC07
:101750008C4504D9C91804F1FF355CD32C4644EA02
:101760000844CCEB0101A4FB0223994248D344D0A6
:10177000204600266CE7C8F1200401FA08F305FAB8
:1017800008F520FA04F7E1404FEA154E1F43B1FB7C
:10179000FEF63A0C0EFB16111FFA85FC42EA0143D5
:1017A0000CFB06F29A4200FA08F407D95B1906F11D
:1017B000FF3137D29A4235D9023E2B449B1ABFB231
:1017C000B3FBFEF00EFB103347EA03430CFB00F1C2
:1017D000994207D95B1900F1FF3221D299421FD9F2
:1017E00002382B445A1A40EA0646674650E710462C
:1017F00016E70B4629E7134672E7B0409042B7D28E
:10180000601E002624E7304622E7A94295D9A8F1B8
:1018100002081D4492E78C45A0D9023C19449EE77A
:101820001046DFE70E46C9E70238294443E700BF08
:101830000B4B1B6810B504460BB19A6B4AB1132CC5
:101840000CD8084850F83430013307D000EBC400FE
:1018500010BD184600F00AFC132CF2D9002010BD70
:1018600058050020280A002070B500F001FB132461
:101870000546002620463146ABBE04464FF0FF30F9
:101880002C6070BD2DE9F04784B0DFF89480CDF86E
:1018900004800327002303970124029301AE20460E
:1018A0003146ABBE81461B4DCDF80480042303971F
:1018B000C5F80090029320463146ABBE8246DFF861
:1018C0006490CDF8048008230397C9F800A0029320
:1018D00020463146ABBE04460F4BD9F800600F4896
:1018E0001C60621C04BF1E60344600234FF0FF31B1
:1018F00040F833100133142B084AF9D12B681360D8
:101900000023966014615360D360536104B0BDE856
:10191000F08700BF200A0020240A0020280A0020A7
:10192000BC9A0008180A002030B585B00624019042
:101930000291039201AD20462946ABBE0446631CCA
:1019400002D0204605B030BDFFF78EFF05B030BD98
:1019500070B50E461546FFF76BFF044658B1314689
:1019600000682A46FFF7E0FF431C03D06368281A8B
:101970000344636070BD00F07BFA092303604FF0FD
:10198000FF3070BDF0B583B00C461546FFF750FF31
:101990000646002839D0022D26D8012D21D0022D4F
:1019A00011D06F4633680A258DE81800284639465D
:1019B000ABBE05466B1C1ED02846002822DB746097
:1019C000204603B0F0BD02AF036847F8083D0C2580
:1019D00028463946ABBE0546691C0FD0284604444C
:1019E000E0E74368E418DCD500F042FA1623036010
:1019F0004FF0FF30E5E7FFF737FFDEE7FFF734FF93
:101A0000421CECD14FF0FF30DBE700F031FA092344
:101A100003604FF0FF30D4E7FFF7B4BF30B585B0B7
:101A2000052401900291039201AD20462946ABBEE8
:101A30000446631C02D0204605B030BDFFF714FFFA
:101A400005B030BD70B50E461546FFF7F1FE0446F1
:101A5000E0B12A4631460068FFF7E0FF021E12DBC4
:101A60006368A81A03449542636000D070BD00F01B
:101A7000FFF913250646002428462146ABBE05463D
:101A80003560204670BD4FF0FF30EFE700F0F0F911
:101A9000092303604FF0FF3070BD00BF30B583B045
:101AA00002AD022445F8040D20462946ABBE04468B
:101AB000631C02D0204603B030BDFFF7D5FE03B053
:101AC00030BD00BF70B582B00446FFF7B1FE0646D8
:101AD00018B3013C012C11D902AD336845F8043D1F
:101AE000022420462946ABBE0446631C10D0204683
:101AF00010B94FF0FF33336002B070BD0A4B9A68E3
:101B00001B699A42E8D14FF0FF3303600020F3E7EE
:101B1000FFF7AAFE0028EFD1EBE700F0A9F90923AF
:101B200003604FF0FF30E7E7280A002001207047EC
:101B30000E4A136810B5ABB118446946884209D8FB
:101B40000B490C4C0968A14201D0884202D81060B0
:101B5000184610BD00F08CF90C2303604FF0FF33E2
:101B6000184610BD044B1360E6E700BF1C0A0020B6
:101B700028010020ADDEFECA100B002070B50D4616
:101B8000FFF756FE0646B0B16B684FF4806243F42F
:101B900000536B60EA620C2420463146ABBE04461B
:101BA000621C03D020462861002070BDFFF75CFE58
:101BB000431CF8D170BD00F05BF9092303604FF0BE
:101BC000FF3070BD38B50C460546002120463C224A
:101BD00000F08EFD28462146BDE83840FFF7CEBF15
:101BE00038B50D46044600213C22284600F080FD11
:101BF0002046002100F012F8431C04460BD06B680D
:101C000043F401436B602946FFF7B8FF05462046C1
:101C1000FFF758FF2C46204638BD00BF2DE9F0479E
:101C2000324E90B082468846002456F834506B1CE1
:101C30004FEAC4070CD00134142CF6D100F018F987
:101C4000182303604FF0FF35284610B0BDE8F08739
:101C500008F42063B3F5206F0DF104093BD040F286
:101C60000163C8F3004518F0020F08EA030318BF28
:101C700045F002050BB145F0040518F0080F18BF38
:101C800025F00403504618BF43F00805CDF804A022
:101C900000F0D6FD02950390012528464946ABBECB
:101CA0000546002D09DB374446F83450254600230D
:101CB00028467B6010B0BDE8F08700F0D9F8132407
:101CC0000646002720463946ABBE04462846346007
:101CD00010B0BDE8F08749465046FFF781FF01305C
:101CE000BDD000F0C5F811230360ADE7280A00203D
:101CF0000EB400B50199FFF791FF5DF804EB03B056
:101D0000704700BF08B500F0B3F8582303604FF0E8
:101D1000FF3008BDF0B583B00E24009000F090FDB8
:101D200001906D4620462946ABBE0446631C02D096
:101D3000002003B0F0BD00F09BF8132506460027F5
:101D400028463946ABBE05462046356003B0F0BD97
:101D5000F0B50C46054638B1112600273046394605
:101D6000ABBE064685E8C00014B100232360636063
:101D70000020F0BD30B51024002520462946ABBE1A
:101D80000446204630BD00BF70B50446102500262D
:101D900028463146ABBE05461CB184E86000A6600B
:101DA000E660284670BD00BF70B5FFF741FD0446F0
:101DB00090B1092528462146ABBE0446012C09D026
:101DC00000F056F813250646002428462146ABBEEF
:101DD00005463560204670BD00F04AF809230360CF
:101DE000F8E700BFE8B130B583B01224009000F0EE
:101DF00027FD01906D4620462946ABBE0446631C74
:101E00000BD0FF2C204606D82CB14000C0F307238E
:101E100001D0A342F9D103B030BDFFF725FD044640
:101E2000EFE70120704700BF30B585B00C46009049
:101E300000F006FD01902046029400F001FD0F2401
:101E400003906D4620462946ABBE0446631C06D06F
:101E50002046003018BF0120404205B030BDFFF7DA
:101E600003FDF6E7014600200246034600F02ABDC6
:101E7000014B1868704700BF5805002008B50021C5
:101E8000044600F07BFD044B1868C36B03B1984710
:101E9000204607F0E7FD00BFC49A00080020704705
:101EA00000207047014900F03FB900BF752A0008C3
:101EB0002DE9F04F354B4568C3630024074600F514
:101EC0003B7204230321C0F8E412C0F8E822C0F8F2
:101ED000E04283B02C606C60AC606C66EC812C617D
:101EE0006C61AC61AB81214605F15C00082200F019
:101EF000FFFBBE68DFF898B0DFF898A0DFF8989095
:101F0000DFF89880C5F820B001230922C5F824A085
:101F1000C5F82890C5F82C80ED612146F381B28187
:101F200006F15C0034607460B4607466346174619E
:101F3000B4610822019300F0DBFBFD68F66112201A
:101F40000222C6F820B0C6F824A0C6F82890C6F829
:101F50002C802146A881EA812C606C60AC606C66A4
:101F60002C616C61AC6105F15C00082200F0C0FBE3
:101F7000019BED61C5F820B0C5F824A0C5F82890F4
:101F8000C5F82C80BB6303B0BDE8F08FA51E000828
:101F9000B9270008E1270008192800083928000897
:101FA00070B568234D1E03FB05F50E4605F174015F
:101FB00000F00CF9044640B100210C30666005F1D8
:101FC00068022160A06000F093FB204670BD00BF56
:101FD000204B70B51D68AB6B064613B92846FFF75A
:101FE00067FF05F538756B68AC68013B05D521E0E6
:101FF000013B5A1C04F168041CD0B4F90C20002ADF
:10200000F6D1002501234FF6FF72E281A3816566B8
:102010002560A560656025616561A561294604F1BB
:102020005C00082200F064FB256365636564A564B9
:10203000204670BD2B680BB11D46D4E73046042105
:10204000FFF7AEFF286008B10546CCE70C233360EC
:1020500070BD00BFC49A0008024B0349186800F025
:1020600063B800BFC49A0008752A0008836B03B1E7
:102070007047FFF71DBF00BF704700BF704700BF2C
:10208000704700BF704700BF024B0349186800F05B
:1020900025B800BF580500209D1E0008024B0349CB
:1020A000186800F01BB800BF58050020A11E0008EA
:1020B00038B5084B084DED1AAC1018BFED1805D017
:1020C000013C55F8043D9847002CF9D1BDE8384053
:1020D00007F004BE00000000000000002DE9F04100
:1020E00010F538771BD0884600267D68BC68013D16
:1020F0000FD4A389012B05F1FF3506D9B4F90E30B1
:102100000133204601D0C04706436B1C04F168042C
:10211000EFD13F68002FE8D13046BDE8F0813E4660
:102120003046BDE8F08100BF2DE9F84310F538775F
:102130001FD0884606464FF000097D68BC68013D07
:1021400011D4A389012B05F1FF3508D9B4F90E305C
:1021500001332146304602D0C04749EA00096B1CD2
:1021600004F16804EDD13F68002FE6D14846BDE890
:10217000F883B9464846BDE8F88300BF70B50F4EF6
:102180000F4D761BB61018BF002405D0013455F84A
:10219000043B9847A642F9D10A4E0B4D761B07F037
:1021A00097FDB61018BF002406D0013455F8043B43
:1021B0009847A642F9D170BD70BD00BF0000000075
:1021C0000000000000000000000000002DE9F04FBA
:1021D00001F10B05162D83B0064627D935F007050A
:1021E00000F1B680A94200F2B38000F0CFFAB5F555
:1021F000FC7F22D2C24FE80807EBC003DC689C4298
:1022000000F0C8816368E168A56823F003032344F4
:1022100030465A68E96042F001028D605A6000F071
:10222000B7FA0834204603B0BDE8F08F102900F259
:102230008F8000F0ABFA1025DCE7680A00F08F8091
:10224000042800F25481A80938304100AC4F07EB54
:102250008101CC68A14206D10CE0002A80F2828084
:10226000E468A14206D0636823F003035A1B0F2AD7
:10227000F3DD01380130A2493C6901F1080E7445D3
:1022800000F07D81636823F003035A1B0F2A00F3DB
:102290006381002AC1F814E0C1F810E073DAB3F5E5
:1022A000007F80F03981DB0801EBC3084FEAA30C03
:1022B0004A68D8F80890C4F80890012303FA0CF390
:1022C0001343C4F80C804B60C8F80840C9F80C40B0
:1022D0008210012494409C4262D8234206D120F00F
:1022E00003006400234200F10400FAD007EBC008A9
:1022F000C4468146DCF80C309C4507D141E10029F9
:1023000080F25181DB689C4500F03B815A6822F0E5
:102310000302511B0F29F2DD1C46D3F80CC054F800
:10232000088F5A1945F0010941F00105C3F80490DE
:102330003046C8F80CC0CCF808807A613A61C2F81F
:102340000CE0C2F808E05560515000F021FA69E74E
:1023500000240C232046336003B0BDE8F08F7E21BB
:102360003F2073E72344E1685A68A56842F0010200
:10237000E96030468D605A6000F00AFA0834204661
:1023800003B0BDE8F08F234430465A6842F00102A2
:102390005A6000F0FDF90834204603B0BDE8F08F24
:1023A000BC68636823F00308454504D8C5EB0803FF
:1023B0000F2B00F38C80534BDFF858A11A68DAF822
:1023C000003001332A4404EB080B00F0508102F581
:1023D00080520F3222F47F6222F00F021146304603
:1023E000019200F0D7F9B0F1FF3F8146019A00F069
:1023F0004781834500F2EE80434B1968CB45114479
:10240000196000F04281DAF80000DFF808E10130DD
:102410001BBFCBEB090B5944CEF80090196019F0A3
:10242000070100F00781C1F10800C1F58051814426
:1024300008314A44C2F30B02C2EB010A514630464E
:10244000019300F0A7F9431C019B00F02C81C9EB1C
:102450000002524442F001021968C7F80890514442
:10246000BC42C9F804201960DFF89CA016D0B8F16E
:102470000F0F40F2EE806268A8F10C0323F007030F
:10248000E01802F001024FF0050E1A430F2B6260B4
:10249000C0F804E0C0F808E000F209811B4BBC68FA
:1024A0001A68914288BF1960194B1A689142626894
:1024B00088BF196022F003029542A2EB050301D800
:1024C0000F2B04DC304600F063F90024AAE6621901
:1024D00043F0010345F0010565603046BA60536082
:1024E00000F056F90834204603B0BDE8F08F1428F8
:1024F00068D9542800F29780280B6E304100A5E679
:102500005C050020D00A0020D40A0020CC0A00205C
:10251000C80A0020680900205A0A042A55D9142A3A
:1025200000F2A7805B324FEA420C07EB8C0CDFF81D
:10253000BC81DCF8081061457FD04A6822F00302B4
:10254000934202D289688C45F7D1CA687B68E26001
:10255000A1609460CC60BBE6631942F0010745F0CE
:102560000105656030464B610B61C3F80CE0C3F8B0
:1025700008E05F609A50083400F00AF952E64B68B0
:10258000A6E609F1010919F0030F0CF1080C7FF41C
:10259000B1AE2CE004F108036469A34208BF023025
:1025A0003FF469AE2EE61A441C465168DB6854F8C5
:1025B000085F41F0010151603046EB609D6000F022
:1025C000E7F82FE65B30410040E69A0938324FEADF
:1025D000420CAAE7BC42454B3FF40EAF9C686268D0
:1025E00022F0030268E7D8F8008098457CD110F00B
:1025F000030FA8F1080300F1FF30F4D17B6823EA50
:1026000004037B6064009C423FF6CAAE002C3FF49A
:10261000C7AE234248467FF469AE6400234200F10E
:102620000400FAD062E6B0F5AA7F18D8E80B77303C
:1026300041000BE64FF48051FBE6D8F804309210CD
:102640004FF0010C0CFA02F21343C8F804300A46AA
:102650007DE70123C9F804304C4600222CE740F204
:10266000545398421CD8A80C7C304100EEE510323F
:10267000B4E6542A23D81A0B6E324FEA420C54E7C0
:10268000BC68626822F0030216E7CBF30B00002857
:102690007FF4B9AE4244BB6842F001025A60FDE6E5
:1026A000FC217E20D2E501224FF0000AD4E604F19D
:1026B0000801304600F048FBDAF80010EEE6B2F50B
:1026C000AA7F04D8DA0B77324FEA420C2DE740F2AA
:1026D00054518A4204D89A0C7C324FEA420C24E7C7
:1026E0004FF0FC0C7E2220E77B688BE75C05002026
:1026F00070B4840746D0541E002A41D0CDB20346A0
:1027000002E0621EE4B3144603F8015B9A07F8D1B5
:10271000032C2ED9CDB245EA05250F2C45EA0545F7
:1027200019D903F110022646103E0F2E42F8105C14
:1027300042F80C5C42F8085C42F8045C02F11002BA
:10274000F2D8A4F1100222F00F0204F00F041032AC
:10275000032C13440DD91E462246043A032A46F898
:10276000045BFAD8221F22F003020432134404F05F
:1027700003042CB1C9B21C4403F8011BA342FBD1D2
:1027800070BC704714460346C2E700BF704700BFE5
:10279000704700BF38B5074C002305460846236044
:1027A000FFF7C6F9431C00D038BD2368002BFBD0CF
:1027B0002B6038BD080B002010B50C46B1F90E1087
:1027C00000F0AEFB002803DB236D0344236510BD3E
:1027D000A38923F48053A38110BD00BF002070475C
:1027E0002DE9F04116468A891D46D3050C46074659
:1027F00006D50022B1F90E10022300F07DFBA2895C
:10280000B4F90E1022F48052A281384632462B468B
:10281000BDE8F04100F042B810B50C46B1F90E1019
:1028200000F06AFBA389421C0EBF23F4805343F4DB
:1028300080532065A38110BDB1F90E1000F008B9D6
:1028400020F0030110F00300C0F1000051F8043B38
:1028500000F1040C4FEACC0C6FF000021CBF22FA0E
:102860000CF213434FF0010C4CEA0C2C4CEA0C4CCC
:10287000A3EB0C0222EA030212EACC1204BF51F8C5
:10288000043B0430F4D0C2F1000102EA0102B2FAC2
:1028900082F2C2F11F0200EBD200704770B5084C03
:1028A00006460025084611461A462560FFF7CAF875
:1028B000431C00D070BD2368002BFBD0336070BD7B
:1028C000080B00202DE9F047254C2568D5F8484134
:1028D0000646884692469946CCB360681F2818DCA5
:1028E000431C7EB104EB80050121C5F888A0D4F813
:1028F000887101FA00F21743022EC4F88871C5F8F6
:1029000008911ED00230636044F820800020BDE8AA
:10291000F087144B03B34FF4C870AFF30080044644
:10292000D0B1D5F84831002780E88800C5F8484183
:1029300038460123C4F88871C4F88C71002EE1D0A8
:10294000D0E7D4F88C110A43C4F88C21DAE705F5F6
:10295000A674C5F84841C0E74FF0FF30BDE8F087E6
:10296000C49A000800000000024B13B10248FFF7B0
:1029700079BA704700000000B12000082DE9F04F3F
:10298000314B83B01B68009303F5A47381460E4658
:102990000193009BD3F8487127B3DDF804A07C684D
:1029A000651E0ED4013407EB84044FF00008E6B135
:1029B000D4F80031B34218D0013D6B1CA4F10404DB
:1029C000F5D1224B73B17B68002B36D13B68002BCD
:1029D00034D03846CAF80030AFF30080DAF800701F
:1029E000002FDCD103B0BDE8F08F7B682268013B8B
:1029F000AB420CBF7D60C4F80080002ADCD0D7F861
:102A00008831D7F804B00121A940194208D1904774
:102A10007B685B45BDD1DAF80030BB42CCD0B8E76B
:102A2000D7F88C31194204D14846D4F88010904729
:102A3000EEE7D4F880009047EAE73B68BA461F46C5
:102A4000002FACD1CEE700BFC49A00080000000000
:102A500038B5074C0023054608462360FFF732F8D7
:102A6000431C00D038BD2368002BFBD02B6038BD41
:102A7000080B002000293DD070B505460C4608B172
:102A8000836B7BB3B4F90C300BB9002070BD2846C2
:102A9000214600F039F8E36A064633B12846E16979
:102AA00098470028B8BF4FF0FF36A3891B061CD4F7
:102AB000216B41B104F14003994202D0284600F055
:102AC00043F900232363616C21B1284600F03CF9EF
:102AD00000236364FFF7D0FA0023A381FFF7CEFA47
:102AE000304670BDFFF7C2FACCE72846216900F0F6
:102AF0002BF9DDE700207047024B01461868FFF70D
:102B0000B9BF00BF580500208B899AB22DE9F0416A
:102B10000D46110780463CD46A6843F40063002ADE
:102B2000AB8165DDAE6A002E4BD09BB203F48052C0
:102B3000002192B2D8F80040C8F80010002A5BD0FB
:102B40002A6D5F0705D569682B6B521A0BB1EB6BC9
:102B5000D21A4046E9690023B047461C56D0AB89DB
:102B60002A692A6023F400639BB200226A60DA04B7
:102B7000AB813BD4296BC8F8004011B305F1400389
:102B8000994202D0404600F0DFF800202863BDE8FB
:102B9000F0812E69AEB12C682E6091070CBF6B6975
:102BA0000023A41BAB600AE0324623466F6AE96942
:102BB0004046B8470028A4EB0004064404DD002C7E
:102BC000F2DC0020BDE8F081AB8943F04003AB812B
:102BD0004FF0FF30BDE8F081AB892A69696023F4CA
:102BE00000639BB2AB81DB042A60C3D52865C1E7D3
:102BF000EA6B002A96DCE4E701234046E969B04726
:102C0000431C024619D0AB89AE6A9AE7D8F8001087
:102C10000029E1D01D2907D0162905D0AB8943F042
:102C20004003AB81BDE8F081AB892A692A6023F4B7
:102C300000630022AB816A609CE7D8F80030002B6B
:102C4000E1D01D2B07D0162B05D0AB8943F04003F4
:102C5000AB81BDE8F081C8F80040B2E710B504468A
:102C600082B008B1836B53B1B1F90C0008B902B05E
:102C700010BD204602B0BDE81040FFF745BF0191EE
:102C8000FFF7F4F90199EFE720B1054B0146186809
:102C9000FFF7E4BF034B04491868FFF745BA00BFCC
:102CA00058050020C49A00085D2C0008F8B5234F91
:102CB0000C460646FFF76AFDBB685D6825F0030514
:102CC000291B01F6EF7121F47F6121F00F01A1F5BD
:102CD0008054B4F5805F07DB30460021FFF75AFDD2
:102CE000BB682B44984204D03046FFF751FD0020CA
:102CF000F8BD30466142FFF74DFD01300DD0104B5D
:102D0000BA6819682D1B45F001053046091B55604E
:102D10001960FFF73DFD0120F8BD30460021FFF7A7
:102D200039FDBA68831A0F2BDEDD064C044924688E
:102D300043F00103001B53600860D5E75C050020E9
:102D4000D40A00206809002000294ED02DE9F04166
:102D50000C468046FFF71AFD54F8047C624927F0C0
:102D60000102A4F10805AB188E6858689E4220F055
:102D700003005AD0FE0758600BD454F8087CED1BB2
:102D800001F1080EAC6874453A4467D0EF68E7601B
:102D9000BC601C186468E4070CD4544F9C68BC42A7
:102DA00002447CD0D868E06042F0010384606B602C
:102DB000AA5003E042F001036B60AA50B2F5007F15
:102DC00014D2D20801EBC20348689F68AF6092102A
:102DD000012404FA02F21043EB6048609D60FD603C
:102DE0004046BDE8F041FFF7D3BC7047530A042BBF
:102DF00047D8930903F13804600001EB80003A4999
:102E00008368834243D0596821F00301914202D97B
:102E10009B689842F7D1DA68EA60AB6040469560FB
:102E2000DD60BDE8F041FFF7B3BCFF07024407D403
:102E300054F8083CED1A1A44A868EB68C36098601F
:102E40002B4B1B6842F001009A4268608D60C7D32B
:102E5000284B40461968FFF729FFC1E71918496850
:102E6000C90709D4D9689B68024442F00100D960BF
:102E70008B606860AA50B3E742F001036B60AA5010
:102E8000AEE7142B14D803F15B046000B5E74A6881
:102E9000A4100120A04002434A601A46BCE742F059
:102EA00001034D610D61EC60AC606B60AA5097E767
:102EB000542B04D8130B03F16E0460009DE7B3F5A7
:102EC000AA7F04D8D30B03F17704600095E740F2A2
:102ED0005450834204D8930C03F17C0460008CE7C7
:102EE000FC207E2489E700BF5C05002064050020EB
:102EF00064090020D00A002070B5084C0646002561
:102F0000084611461A462560FEF786FD431C00D090
:102F100070BD2368002BFBD0336070BD080B002010
:102F200070B5084C06460025084611461A4625602D
:102F3000FEF70EFD431C00D070BD2368002BFBD0B4
:102F4000336070BD080B002038B50C460968054693
:102F500009B1FFF7F9FF28462146BDE83840FFF7E1
:102F6000F3BE00BF204B1B6898423CD0C36C70B5C9
:102F700005468BB10026995939B10C682846FFF7F0
:102F8000E3FE2146002CF8D1EB6C0436802EF2D102
:102F900019462846FFF7D8FE296C11B12846FFF7DD
:102FA000D3FED5F8481151B105F5A676B14206D049
:102FB0000C682846FFF7C8FEA6422146F8D1696D85
:102FC00011B12846FFF7C0FEAB6B03B970BDEB6BC8
:102FD00028469847D5F8E0120029F7D02846BDE8E2
:102FE0007040FFF7B1BF704758050020002103E093
:102FF0000D4B5B58435004310C480D4B42189A421C
:10300000F6D30C4A02E0002342F8043B0A4B9A42F2
:10301000F9D30A48016841F470010160FDF774F9C1
:10302000FDF784FA704700DF649D0008000000206F
:10303000EC090020FC090020100B002088ED00E0C6
:10304000FEE700000EB400B582B003AB816853F810
:10305000042B019301F0CCFA02B05DF804EB03B04D
:10306000704700BF0FB400B5074983B004AB0868D0
:1030700053F8042B8168019301F0BAFA03B05DF8AC
:1030800004EB04B0704700BF580500200CB4F0B545
:103090009DB022AC0E4654F8042B029123464FF407
:1030A000027E6FF000454FF6FF7702A90696019465
:1030B000ADF814E004950795ADF8167000F030F8FF
:1030C000029B00221A701DB0BDE8F04002B07047AC
:1030D0000EB4F0B59CB021AB0F4953F8042B01930B
:1030E00005466FF00044086802954FF402774FF6EA
:1030F000FF7602A90695ADF8147004940794ADF814
:10310000166000F00DF8029B00221A701CB0BDE89A
:10311000F04003B0704700BF5805002000000000D9
:103120002DE9F04FBFB0894606920A93049003F050
:1031300039FD036813931846FFF782FBB9F80C308A
:1031400014901A0604D5D9F81030002B01F0A18094
:103150009FED997B8DED107B00232EAF0F93239372
:10316000229312931593079321973C464E46069D52
:103170002B78002B00F0A980252B02D1A5E0252B70
:1031800003D015F8013F002BF9D1069BEB1A73B160
:10319000229A23990698206001321944072A636015
:1031A0002391229272DC0834079A1A4407922B78F2
:1031B000002B00F0CB870023691C6D788DF86730F9
:1031C0001A46089303934FF0FF3A4B1CA5F12001D8
:1031D000582900F2E483DFE811F07702E203E2030A
:1031E0007B03E203E203E203E203E203E203F7020A
:1031F0001402E203FB011802E2038203C102C102CE
:10320000C102C102C102C102C102C102C102E20384
:10321000E203E203E203E203E203E203E203E20386
:10322000E203D0029103E2039103E203E203E2032B
:10323000E2037403E203E2030C03E203E203E203AA
:10324000E203E2032A03E203E2034403E203E203AC
:10325000E203E203E203E203E203E203E203E20346
:103260005F03330291039103910305033302E203E9
:10327000E203ED02E20385020202CB037E02E203D7
:103280009902E2037A00E203E203510204980393F5
:10329000314621AA04F0EAF950B93C46039B83E782
:1032A0000498314621AA04F0E1F9002800F08C814D
:1032B000B146B9F80C3013F0400F079B18BF4FF020
:1032C000FF3318463FB0BDE8F08F069D6FE70693C9
:1032D000039B980640F1B4820A9B03F1070929F089
:1032E000070303F10802D3E900890A9201234FF092
:1032F000000C8DF867C0CDF834A0BAF1000F03DBE5
:10330000039A22F08002039258EA090240F05783A0
:10331000BAF1000F00F05C84012B00F05A83022BFD
:1033200000F09A8439464FEAD80242EA49724FEADD
:10333000D90008F0070381469046303358EA090265
:1033400001F8013DEFD1039A0C91D20700F16E858F
:103350007B1A0993099A92455346B8BF13460593C1
:1033600000230E93BCF1000F02D0059B013305939F
:10337000039B13F002030B9302D0059B02330593CA
:10338000039B13F0840940F01783089B059AC2EB56
:103390000308B8F1000F40F30F83B8F1100F239921
:1033A000229ADFF81CA030DD53464FF0100BC246C6
:1033B000A8461D460DE000BF000000000000000010
:1033C000D89A0008AAF1100ABAF1100F04F1080403
:1033D00017DD01321031072A2391229284E8200858
:1033E000F0DD0498314621AA04F040F900287FF46A
:1033F0005FAFAAF1100ABAF1100F2399229A3C4646
:10340000E7DC2B464546D0469A46013208EB010BD5
:10341000072ACDF88CB02292C4F800A0C4F804802A
:1034200000F37E849DF867C00834BCF1000F0FD014
:10343000229B01330BF1010B0DF167010122072BD8
:10344000CDF88CB0229384E8060000F3EA830834B8
:103450000B9B73B1229B01330BF1020B1AA90222C1
:10346000072BCDF88CB0229384E8060000F3CD83BF
:103470000834B9F1800F00F015830D9B099AC2EB57
:10348000030ABAF1000F3CDDBAF1100F229ADFF8FF
:1034900064942BDD49465B46A9464FF01008DDF8E1
:1034A00010B00D4606E0AAF1100ABAF1100F04F1AF
:1034B000080417DD01321033072A2393229284E88F
:1034C0002001F0DD5846314621AA04F0CFF800284B
:1034D0007FF4EEAEAAF1100ABAF1100F239B229AE4
:1034E0003C46E7DC9B462B464D4699460132D34489
:1034F000072ACDF88CB0229284E8000600F3798385
:103500000834039BD90500F17082229B09990C9A1B
:10351000226001338B44072BCDF88CB0616022937D
:1035200000F34A830834039B5A0741D5089B059A48
:103530009D1A002D3CDD102D229BDFF8BCA323DD5E
:103540004FF010085A46DDF8109004E0103D102DA1
:1035500004F1080417DD01331032072B2392229364
:10356000C4F800A0C4F80480F0DD4846314621AA22
:1035700004F07CF800287FF49BAE103D102D239AB8
:10358000229B3C46E7DC93460133AB44072BCDF846
:103590008CB02293C4F800A0656009DD0498314620
:1035A00021AA04F063F800287FF482AEDDF88CB025
:1035B000079B059A08998A42ACBF9B185B18079332
:1035C000BBF1000F7FF46CAE002322933C46CEE5A6
:1035D000194603981D7840F004000390F5E5069322
:1035E000039B13F0200300F00E810A9B03F10709EF
:1035F00029F0070303F10802D3E900890A920023A6
:1036000075E61D7819462B22DFE51D782A2D03F17A
:10361000010100F0B887A5F1300009280B464FF0F2
:10362000000A3FF6D3AD13F8015B0AEB8A0A00EB00
:103630004A0AA5F130000928F5D94AEAEA7AC5E52F
:103640000693039B8DF867209B0640F1A1800A9B9F
:1036500003F1070929F00709D9E9002309F1080155
:103660000A9190469946002A73F10003C0F20E8435
:103670009DF867C0CDF834A001233EE606939B4B2E
:103680001293039B8DF867209B0640F1F3800A9B01
:1036900003F1070929F00703D3E9008903F10802C0
:1036A0000A92039BD90740F1F58058EA090300F01C
:1036B000F180039A8DF86950302342F002028DF8B0
:1036C00068300392022312E61D781946002A7FF41F
:1036D0007CAD202279E5039941F0200103911D780A
:1036E000194672E50693039B8DF867209A0640F110
:1036F000B08407990A9A4FEAE17913680846884628
:10370000043249460A92C3E9000130E50A9A069359
:1037100013680C934FF0000B8DF867B002F10409A9
:10372000002B00F04686BAF1000F0C98C0F2F68527
:103730005946524603F0B6FA002800F077860C9BF3
:10374000CDF834B0C31A0993CDF8289023EAE37377
:103750000593CDF838B09DF867C003E6A5F13000B9
:10376000002113F8015B01EB810100EB4101A5F1A0
:1037700030000928F5D9089128E50693039B8DF8B8
:10378000672043F010030393039B9B063FF55FAF55
:10379000039BD80600F16B83039B590640F16783B6
:1037A0000A99B1F9008004314FEAE87942464B4664
:1037B0000A9158E71D7803996C2D00F0D38441F0ED
:1037C00010010391194600E50A9D296808910846F1
:1037D0000028294601F10401C0F2CB840A911D782A
:1037E0001946F2E4039941F0400103911D7819460E
:1037F000EBE40693039B43F010030393039B13F046
:1038000020037FF4F2AE039A12F0100240F01C8302
:10381000039B13F0400300F017830A9913460A46EE
:103820000432B1F800800A924FF000095FE5069378
:10383000039B43F010030393039B98063FF54CADA5
:10384000039BD90600F10983039B5A0640F10583C7
:103850000A9AB2F8008004324FF0000901230A925C
:1038600045E50693224B1293039B8DF867209B0638
:103870003FF50DAF039BD80640F1DC830A9A13464F
:103880001B689846039B0432D9070A924FF000093F
:103890003FF50BAF02232AE50A9906930A688DF8D3
:1038A00090200023012204319C4605920A918DF854
:1038B000673024ABCDF834C0CDF838C009920C93F2
:1038C00056E5039941F0080103911D7819467CE4FF
:1038D000039941F0010103911D78194675E403999C
:1038E00041F0800103911D7819466EE40C9B00089D
:1038F000F89A0008C89A0008D89A00080693039B13
:103900008DF8672013F0080F0A9BD34603F10709CF
:1039100000F0868329F0070393ED007B8DED107B8B
:1039200003F108020A929DED100B03F071FE0128CD
:1039300040F05A83DDE9100100220023FDF75AFC14
:10394000002840F06B859DF867C0039BBD4ADFF8F7
:1039500000E323F080030393134603210020472D47
:10396000D8BF734605910D900C9309910E90F9E420
:103970000A9803990693302203688DF8682002465E
:10398000782541F0020104329846AF4B129303911F
:103990000A924FF000098DF869500223A7E40693BC
:1039A0008DF86720002D00F0D183002301229C4672
:1039B00005928DF890507AE7DDF88CB035E5012B53
:1039C0007FF4ADACB9F1000F08BFB8F10A0F80F079
:1039D0000D820DF1F80B08F130080BF8418DCBEB9F
:1039E00007030993CDF830B0B4E4652D40F3A0800F
:1039F000DDE9100100220023FDF7F2FB002800F0B2
:103A00004481229B914A226001330BF1010B012278
:103A1000072BCDF88CB02293626000F33F8308340B
:103A20001B9B0F9A934203DB039BDA077FF57BAD69
:103A3000229B1499139A226001338B44072BCDF8F3
:103A40008CB06160229300F39B8308340F9B5D1E52
:103A5000002D7FF768AD102D229BDFF8F89140F321
:103A6000B9814FF010085A46DDF810A004E0083480
:103A7000103D102D40F3AD8101331032072B2392FE
:103A80002293C4F80090C4F80480F0DD504631461B
:103A900021AA03F0EBFD00287FF40AAC239A229BB5
:103AA0003C46E5E7089B059AC2EB030ABAF1000F12
:103AB0007FF7E3ACBAF1100F229ADFF898912BDD73
:103AC00049465B46A9464FF01008DDF810B00D4698
:103AD00006E0AAF1100ABAF1100F04F1080417DD8C
:103AE00001321033072A2393229284E82001F0DD6B
:103AF0005846314621AA03F0B9FD00287FF4D8AB1F
:103B0000AAF1100ABAF1100F239B229A3C46E7DC77
:103B10009B462B464D4699460132D344072ACDF8A1
:103B20008CB0229284E8000600F351820834A4E4A9
:103B30000F9B229D012B40F31F820C9B23600135BC
:103B40000BF101030122072D23932295626000F3FC
:103B50002582083414996160013503EB010B072DB0
:103B6000139BCDF88CB02295236000F32382083498
:103B70000023DDE910010022FDF732FB0F9B002836
:103B800040F0DD800C9A013B013501329B44072D4A
:103B90002295CDF88CB02260636000F30D8108346B
:103BA000159A6260013593441DAB072DCDF88CB09A
:103BB000229523607FF7B6AC0498314621AA03F022
:103BC00055FD00287FF474ABDDF88CB03C46AAE4C8
:103BD000002B32D1039BD8072FD50DF1F80B3023E2
:103BE0000BF8413DCBEB07030993CDF830B0FFF75D
:103BF000B1BB0498314621AA03F038FD00287FF4B8
:103C000057ABDDF88CB03C467BE40498314621AAE2
:103C100003F02CFD00287FF44BABDDF88CB03C4664
:103C200027E40498314621AA03F020FD00287FF400
:103C30003FABDDF88CB03C460AE4CDF824A00C97ED
:103C4000FFF788BBEC9A00080C9B0008289B000833
:103C5000E89A0008C89A00081298BB464FEA181361
:103C600008F00F0143EA09734FEA1912984691468A
:103C7000435C0BF8013D58EA0903EFD15B46CDF8F0
:103C800030B0FB1A0993FFF765BB1B9D002D40F375
:103C900011820F9A0E998A421346A8BF0B461D4601
:103CA0000C99002D01EB020A0BDD229B21600133F0
:103CB000AB44072BCDF88CB06560229300F355839D
:103CC00008340E9B002DA8BF5B1B002B1D4640F344
:103CD000F580102D229BDFF8089640F3D2815A46DA
:103CE0004FF01008DDF810B004E00834103D102D3E
:103CF00040F3C68101331032072B23922293C4F87C
:103D00000090C4F80480F0DD5846314621AA03F043
:103D1000ADFC00287FF4CCAA239A229B3C46E5E721
:103D20000498314621AA03F0A1FC00287FF4C0AA20
:103D30009DF867C0DDF88CB03C46FFF776BB03F119
:103D4000FF38B8F1000F7FF72BAFB8F1100FDFF895
:103D5000909525DD5B464FF0100ADDF810B006E0C7
:103D6000A8F11008B8F1100F04F1080417DD0135AF
:103D70001033072D2393229584E80006F0DD584682
:103D8000314621AA03F072FC00287FF491AAA8F121
:103D90001008B8F1100F239B229D3C46E7DC9B46A0
:103DA0000135C344072DCDF88CB02295C4F800909E
:103DB000C4F804807FF7F3AE0498314621AA03F0DB
:103DC00055FC00287FF474AADDF88CB0229D3C4697
:103DD000E6E693460133AB44072BCDF88CB0229333
:103DE000C4F8009065607FF79DABE5E6BB46CDF873
:103DF00014C0404649460A220023FDF74BFA3032F0
:103E0000404649460BF8012D00230A22FDF742FAED
:103E10008046894658EA0903EBD15B46FB1ADDF878
:103E200014C0CDF830B00993FFF794BA302B0C9B37
:103E30003FF427AF013B1A460C93BA1A302309927C
:103E400001F8013CFFF786BA0A990A6804310A9121
:103E500090464FF00009FFF74ABA0A990A68043100
:103E600001230A9190464FF00009FFF740BA0A9AE1
:103E7000136898464FEAE3791346043342460A939F
:103E8000002A4B4673F10003BFF6F2AB4FF02D0C46
:103E9000D8F1000869EB49098DF867C0CDF834A066
:103EA0000123FFF72ABA0498314621AA03F0DEFB6A
:103EB00000287FF4FDA9DDF88CB03C460C9A0E99E1
:103EC0001B9B0A4490460F9A934246DB039AD00705
:103ED00043D40F9AC8EB0A05D31A9D42A8BF1D46CA
:103EE000002D0CDD229AC4F800800132AB44072A71
:103EF000CDF88CB06560229200F36F820834002DFB
:103F0000ACBF5D1B1D46002D7FF70DAB102D229B16
:103F1000DFF8CC937FF75EAF4FF010085A46DDF81C
:103F200010A004E00834103D102D7FF752AF01338C
:103F30001032072B23922293C4F80090C4F8048017
:103F4000F0DD5046314621AA03F090FB00287FF4B3
:103F5000AFA9239A229B3C46E5E7229A149813992D
:103F6000216001328344072ACDF88CB06060229230
:103F700000F307820834ACE7039BD9073FF5DDADBA
:103F80000C9B236001350BF1010B0123072DCDF8AC
:103F90008CB0229563607FF702AE0DE7049831463E
:103FA00021AA03F063FB00287FF482A9239B229DB2
:103FB0003C46CFE50498314621AA03F057FB002880
:103FC0007FF476A9DDF88CB0229D3C46D0E50498BC
:103FD000314621AA03F04AFB00287FF469A9DDF8E5
:103FE0008CB03C46FFF749BA9DED100B03F010FB77
:103FF000002840F0D1808646B64AB74B0D90039812
:104000009DF867C0CDF838E0032120F08000472DEF
:10401000D8BF1A46059103900C920991FFF7A2B9F7
:1040200029F0070999ED007B09F108038DED107B5C
:104030000A9378E4039B0A9A13F0400F13463FF467
:104040001FAC0433B2F800800A934FF00009FFF769
:1040500028BB039BDB060BD4039B5D0608D50A9A9D
:10406000136804320A92BDF81C201A80FFF77FB84B
:104070000A9A136804320A92079A1A60FFF777B80F
:1040800093460133AB44072BCDF88CB02293C4F890
:10409000009065603FF707AF08340FE7049831469A
:1040A00021AA03F0E3FA00287FF402A9DDF88CB01E
:1040B0003C46B5E4229B894A226001330BF1010B97
:1040C0000122072BCDF88CB02293626000F3F180BF
:1040D00008342DB90F9B1BB9039BDB077FF523AA7F
:1040E000229B1498139A226001330BEB0001072BDB
:1040F00023916060229300F3EF8104F108026D4286
:10410000002D40F3FA80102DDFF8D49140F3468162
:104110001024DDF8108004E00832103D102D40F32B
:104120003D8101331031072B23912293C2F8009077
:104130005460F1DD4046314621AA03F097FA002889
:104140007FF4B6A82399229B3A46E6E7239BB14623
:10415000002B3FF4AEA80498314621AA03F086FA5A
:10416000FFF7A7B841F0200103915D78591CFFF7D4
:104170002CB808980A91404208901946FFF729BACE
:104180000498314621AA03F071FA00287FF490A820
:10419000DDF88CB03C4659E425F02003BAF1FF3F2E
:1041A000059300F09380472B05D1BAF1000F14BF9F
:1041B000D3464FF0010B119B039A002B42F48072FF
:1041C0000B92C0F2A4819DED107B8DED167B4FF01C
:1041D000000A662D00F0AC80462D00F0A980059BFA
:1041E0000498452B0CBF0BF10109D9461CAA1FAB43
:1041F0008DE80C009DED160B02214A461BAB01F029
:104200004BFD672D0C9002D0472D40F09F80039B03
:10421000DB0740F192810C9B03EB0908DDE91601F5
:1042200000220023FCF7DCFF002840F0FD801F9BEC
:10423000984506D930215A1C1F9219701F9B98452A
:10424000F9D80C9A9B1A0F93059B472B1B9B00F0E8
:10425000DE80652D40F3F880662D0E9300F06081BE
:104260000F9B0E9A934200F34481039BD90700F100
:10427000668122EAE2730992BAF1000F40F0BC8035
:1042800005930B9B0393CDF834A09DF867C0FFF70F
:1042900069B804984021FDF799FFC9F80000C9F8F2
:1042A0001000002800F097814023C9F81430FEF771
:1042B0004FBF0498314621AA03F0D8F900287EF4B4
:1042C000F7AF1B9DDDF88CB03C4602E74FF0060BC4
:1042D00071E700BFF49A0008F09A0008289B0008D4
:1042E000C89A00080498314621AA03F0BFF90028B3
:1042F0007EF4DEAF2399229B3A460F9C5460013333
:1043000001EB040B072B0C99CDF88CB022931160B4
:104310003FF752AC02F10804FFF705B9CDF834B00D
:10432000FEF78EFACDF8289009900346FFF70EBAF3
:104330001CAA1FAB8DE80C0004989DED160B032101
:104340005A461BAB01F0A8FCD9460C900C9B03EB22
:104350000908059B462B7FF461AF0C9B1B78302B23
:1043600000F003811B9B984458E70498314621AA2A
:1043700003F07CF900287EF49BAFDDF88CB03C465E
:104380009FE40498314621AA03F070F900287EF4D6
:104390008FAF1B9BDDF88CB03C469AE50133294476
:1043A000072B23912293C2F8009055609ADC0832C3
:1043B000A3E75346062B28BF0623099323EAE3739A
:1043C000DDF830C00593874BCDF82890CDF834C088
:1043D000CDF838C00C93FEF7C5BF0498314621AA2A
:1043E00003F044F900287EF463AF1B9B0F9ADDF8BD
:1043F0008CB0D31A3C4682E505930B9B03934FF098
:104400002D0C00238DF867C00D93FEF7AEBFDA1CAC
:1044100019DB9B4517DB0E93672521E74FF02D0C29
:104420008DF867C0FFF791BA43460AE72AEAEA73B4
:104430000D90CDF828900E909DF867C00593CDF8AB
:1044400024A0FEF78FBF023D013B002B1B93BABF98
:104450005B422D222B22092B8DF874508DF875208C
:104460007BDD0DF1830E70465F4A82FB0321DA1774
:10447000C2EBA10202EB8201A3EB410303F1300185
:10448000092A134600F8011DEEDC02463033D9B28A
:1044900002F8011D964540F29B800DF1760203461D
:1044A00001E013F8011B02F8011B7345F9D121ABA0
:1044B0001B1A0DF1760213441DAA9B1A0F9A15932D
:1044C000012A1344099374DD099B002201330993E7
:1044D0000E9223EAE373CFE60498314621AA03F053
:1044E000C5F800287EF4E4AE1B9D2399229B3A4632
:1044F00005E60E9B002BD8BFC3F102080F9BC8BF77
:104500004FF001084344099323EAE373B4E6DDE97D
:10451000100101F10043169017934FF02D0A58E651
:10452000002B3DDDBBF1000F0FD1039BDB070CD44B
:104530000E9A099222EAE2739EE61F9B81E60E9B89
:104540000133099323EAE37396E60E9B0BF101080E
:104550004344099323EAE3738EE6303330228DF827
:1045600077308DF876201EABA6E7DDE91601002234
:104570000023FCF735FE00287FF4F4AEC9F10103F7
:104580001B9398444AE60A9DD5F800A028460430BB
:10459000BAF1000F5D780A90BEF617AEFEF713BEB3
:1045A000BBF1000F0ED1039BD8070BD40123099355
:1045B00062E6039B13F0010386D10E93099B23EA65
:1045C000E37359E60BF10203099323EAE37353E61D
:1045D0000DF1760370E7049A0C2313604FF0FF305F
:1045E000FEF770BE209B000867666666AFF300802A
:1045F0002DE9F04FBDB01C4689460492074602F0F3
:10460000D1FA036811931846FEF71AF9089412902C
:104610001FB1BB6B002B00F0F380B9F80C2093B2F4
:104620009E040AD4D9F8641042F4005321F40051D6
:10463000A9F80C30C9F864109BB21D0740F1AA809C
:10464000D9F81020002A00F0A58003F01A030A2BE5
:1046500000F0AC809FED6E7B00238DED0E7B0D9303
:10466000219320931093139305932CAB1F931C4617
:10467000B846049D2B78002B00F0C680252B02D174
:10468000C2E0252B03D015F8013F002BF9D1049B84
:10469000EE1A7EB1209B219A0499216001333244A5
:1046A000072B66602192209300F393800834059BCA
:1046B000334405932B78002B00F093800023691C72
:1046C0004FF0FF3A6D788DF85F301A4606930293EB
:1046D00056464B1CA5F12001582900F2CD83DFE896
:1046E00011F05C02CB03CB030203CB03CB03CB0360
:1046F000CB03CB03CB030903D202CB03F801530353
:10470000CB03D602DD02DD02DD02DD02DD02DD02C9
:10471000DD02DD02DD02CB03CB03CB03CB03CB03F6
:10472000CB03CB03CB03CB03CB0371029302CB03AD
:104730009302CB03CB03CB03CB03CB02CB03CB0343
:104740006E03CB03CB03CB03CB03CB03B503CB036C
:10475000CB038B03CB03CB03CB03CB03CB03CB0329
:10476000CB03CB03CB03CB03A0031703930293022A
:10477000930230031703CB03CB033703CB0341036F
:10478000FF01EC026302CB031102CB039B00CB03BE
:10479000CB0336023846494601F086F9A0B9B9F88C
:1047A0000C3003F01A030A2B7FF454AFB9F90E3022
:1047B000002BFFF64FAF38464946049A234601F0D6
:1047C00037F93DB0BDE8F08F4FF0FF303DB0BDE8A8
:1047D000F08F404649461FAA03F056FD40B92CAC65
:1047E00065E7219B23B1404649461FAA03F04CFDD3
:1047F000B9F80C305A06E7D405983DB0BDE8F08F03
:104800003846FDF733FC08E7049D53E7AFF300801B
:1048100000000000000000000493029BB2469E06C8
:1048200040F11E83089F073727F0070303F10802B2
:10483000D3E90067089201234FF0000C8DF85FC0A8
:10484000CDF82CA0BAF1000F03DB029A22F080020F
:10485000029256EA070240F01F83BAF1000F00F0FF
:104860001C84012B00F02083022B00F052842CA921
:10487000F20842EA4772F80806F0070307461646B0
:10488000303356EA070201F8013DF1D1029A0A914C
:10489000D00700F1F9842CAB5B1A0793079A924575
:1048A0005346B8BF1346039300230C93BCF1000F8B
:1048B00002D0039B01330393029B13F0020309937D
:1048C00002D0039B02330393029B13F0840640F053
:1048D000E082069B039AC2EB030ABAF1000F40F391
:1048E000D882BAF1100F2199209AB34FC8BF4FF068
:1048F000100B07DC1EE0AAF1100ABAF1100F04F148
:10490000080417DD01321031072A2191209284E832
:104910008008F0DD404649461FAA03F0B5FC002898
:104920007FF466AFAAF1100ABAF1100F2199209A0C
:104930002CACE7DC01320AEB010B072ACDF884B07E
:10494000209284E8800400F34A849DF85FC0083414
:10495000BCF1000F0FD0209B01330BF1010B0DF1C7
:104960005F010122072BCDF884B0209384E8060074
:1049700000F3B1830834099B73B1209B01330BF121
:10498000020B18A90222072BCDF884B0209384E8EB
:10499000060000F3AC830834802E00F0F0820B9BFD
:1049A000079AC2EB030ABAF1000F32DDBAF1100F19
:1049B000209A824F22DD10265B4606E0AAF1100AFB
:1049C000BAF1100F04F1080417DD01321033072A81
:1049D0002193209227606660F0DD404649461FAA79
:1049E00003F052FC00287FF403AFAAF1100ABAF1D9
:1049F000100F219B209A2CACE7DC9B460132D3445C
:104A0000072ACDF884B0209284E8800400F357830D
:104A10000834029BDB0500F15B82209B07990A9A10
:104A2000226001338B44072BCDF884B06160209362
:104A300000F31D830834029B59073AD5069B039A5D
:104A40009D1A002D35DD102D209B5B4F1EDD10269D
:104A50005A4604E0103D102D04F1080415DD013321
:104A60001032072B2192209327606660F2DD4046CA
:104A700049461FAA03F008FC00287FF4B9AE103D98
:104A8000102D219A209B2CACE9DC93460133AB44DA
:104A9000072BCDF884B020932760656009DD404680
:104AA00049461FAA03F0F0FB00287FF4A1AEDDF811
:104AB00084B0059B039A06998A42ACBF9B185B1889
:104AC0000593BBF1000F40F0DE82002320932CAC55
:104AD000CFE5194602981D7840F004000290F8E5F1
:104AE0000493029B13F02003B24600F07381089FE9
:104AF000073727F0070303F10802D3E9006708929C
:104B0000002399E6089A049313680A934FF0000B68
:104B10008DF85FB0171D002B00F05E86002E0A98FE
:104B2000C0F212865946324602F0BCF8002800F066
:104B30008F860A9BCDF82CB0C31A0793089723EAF7
:104B4000E3730393CDF830B09DF85FC0AEE60493F5
:104B50001B4B1093029B8DF85F209906B24640F1E3
:104B60005581089F073727F00703D3E9006703F152
:104B700008020892029BDB0740F1E48256EA070331
:104B800000F0E082029A8DF86150302342F0020278
:104B90008DF86030029202234EE61D781946002AF5
:104BA0007FF497AD202294E5029941F02001029113
:104BB0001D7819468DE500BF3C9B00082C9B000822
:104BC0000C9B00080493029B8DF85F2043F01003B8
:104BD0000293029B9806B24640F1A280089F0737D5
:104BE00027F00707D7E9002307F1080108911646C7
:104BF0001F46002A73F10003C0F21C849DF85FC0B9
:104C0000CDF82CA001231DE60493029B089F8DF88C
:104C10005F201B07B246B34607F1070740F19B84AC
:104C200027F0070393ED007B8DED0E7B03F1080267
:104C300008929DED0E0B02F0EBFC012840F0088479
:104C4000DDE90E0100220023FCF7D4FA002840F031
:104C5000EC859DF85FC0029E994A9A4B0321002083
:104C600026F08006472DD8BF1A4603910B90029676
:104C70000A9207910C9019E6029941F008010291FD
:104C80001D78194625E51D7819462B2221E5029944
:104C900041F0800102911D7819461AE5A5F1300016
:104CA000002113F8015B01EB810100EB4101A5F14B
:104CB00030000928F5D906910CE5089904933023B2
:104CC000029A8DF860300B460433782542F00202D8
:104CD00008937D4B1093B24602920E688DF8615096
:104CE00000270223A8E5029941F0010102911D78F5
:104CF0001946EEE4089D29680691084600282946D1
:104D000001F10401C0F2EE8408911D781946E0E437
:104D10000493029B8DF85F209806B2463FF55EAF84
:104D2000029BD90600F19B82029B5A0640F19782B2
:104D30000899B1F900600431F71732463B460891F3
:104D400057E7029941F0400102911D781946C0E4ED
:104D50001D7802996C2D00F0BE8441F01001029183
:104D60001946B6E40493029B8DF85F209A0640F141
:104D7000FD83089A05991368CF170846043239460F
:104D80000892C3E9000174E41D782A2D03F10101A2
:104D900000F02A86A5F1300009280B464FF00006E6
:104DA0003FF698AC13F8015B06EB860600EB46066F
:104DB000A5F130000928F5D946EAE6768AE404939D
:104DC000029B43F010030293029B13F02003B246B0
:104DD0007FF48DAE029A12F0100240F03882029BEE
:104DE00013F0400300F03382089913460A46043258
:104DF0000E88089200271FE50493344B1093029B02
:104E00008DF85F209906B2463FF5ABAE029BDA06FD
:104E100040F1D183089A134604331668089300279B
:104E2000A8E6089904930A688DF8882000230122D7
:104E300004319C46039208918DF85F3022ABCDF887
:104E40002CC0CDF830C007920A9335E50493029B3D
:104E500043F010030293029BB2469E063FF5E2AC7C
:104E6000029BD80640F19983089A134604321E68C3
:104E7000089201230027DFE404938DF85F20002DC2
:104E80003FF4AFAC002301229C4603928DF888507A
:104E9000D2E7DDF884B05BE5012B7FF4E5AC002FB1
:104EA00008BF0A2E80F0FF810DF1F00B30360BF8B1
:104EB000416D2CABCBEB03030793CDF828B0EDE4A9
:104EC000EC9A0008E89A00080C9B0008F89A000881
:104ED000652D40F38A80DDE90E0100220023FCF7F6
:104EE0007FF9002800F03181209BAE4A2260013317
:104EF0000BF1010B0122072BCDF884B020936260E7
:104F000000F372830834199B0D9A934203DB029BD2
:104F1000DF077FF590AD209B1299119A2260013333
:104F20008B44072BCDF884B06160209300F3E183BC
:104F300008340D9B5D1E002D7FF77DAD102D209B4D
:104F4000994F40F3968110265A4604E00834103DEC
:104F5000102D40F38D8101331032072B21922093C5
:104F600027606660F2DD404649461FAA03F08CF9CF
:104F700000287FF43DAC219A209B2CACE7E7069BF0
:104F8000039A9E1A002E7FF70AAD102E209A864FA4
:104F90001FDD4FF0100A5B4604E0103E102E04F1B6
:104FA000080415DD01321033072A2193209284E88A
:104FB0008004F2DD404649461FAA03F065F9002847
:104FC0007FF416AC103E102E219B209A2CACE9DC0D
:104FD0009B460132B344072ACDF884B02092276063
:104FE000666000F31A820834D9E40D9B209D012BE2
:104FF00040F3D5810A9B236001350BF101060123A3
:10500000072D21962095636000F3E5810834129AFC
:10501000119B236001351644072D2196209562606F
:1050200000F3EF8108340023DDE90E010022FCF7D4
:10503000D7F80D9B002840F0E1800A9A013B01352A
:1050400001321E44072D209521962260636000F3F3
:10505000B6810834139A6260013506EB020B1BAB74
:10506000072DCDF884B0209523607FF7E3AC404650
:1050700049461FAA03F008F900287FF4B9ABDDF810
:1050800084B02CACD7E4404649461FAA03F0FCF894
:1050900000283FF41AADFFF7ABBB002B33D1029BC6
:1050A000DA0730D50DF1F00B30230BF8413D2CAB76
:1050B000CBEB03030793CDF828B0FFF7EFBB4046D7
:1050C00049461FAA03F0E0F800287FF491ABDDF811
:1050D00084B02CAC9DE4404649461FAA03F0D4F8A6
:1050E00000287FF485ABDDF884B02CAC43E4404667
:1050F00049461FAA03F0C8F800287FF479ABDDF811
:1051000084B02CAC48E42CABCDF81CA00A93FFF77C
:10511000C5BB10980DF1B00B330906F00F0143EA3F
:1051200007733A091E461746435C0BF8013D56EAE1
:105130000703F1D15A462CAB9B1ACDF828B0079340
:10514000FFF7ACBB0223FFF777BB199D002D40F39F
:1051500057820D9A0C998A421346A8BF0B461D46EA
:105160000A99002D01EB020A0BDD209B216001331F
:10517000AB44072BCDF884B06560209300F309831E
:1051800008340C9B002DA8BF5B1B002B1D4640F371
:10519000B080102D209B044F40F31A8210265A46EF
:1051A00009E000BF289B00082C9B00080834103D34
:1051B000102D40F30C8201331032072B21922093E3
:1051C00027606660F2DD404649461FAA03F05CF89E
:1051D00000287FF40DAB219A209B2CACE7E74046DA
:1051E00049461FAA03F050F800287FF401AB9DF850
:1051F0005FC0DDF884B02CACFFF7AABB03F1FF3A27
:10520000BAF1000F7FF726AFBAF1100F8F4FC8BF6A
:105210004FF0100B07DCEAE00834AAF1100ABAF1EB
:10522000100F40F3E48001351036072D21962095AC
:1052300084E88008F0DD404649461FAA03F024F8C0
:1052400000287FF4D5AA219E209D2CACE5E7089983
:105250000A4604320E6808920027FFF7EDBA089A52
:10526000166813460433F717089332463B46C0E4EA
:1052700093460133AB44072BCDF884B020932760CD
:1052800065607FF7D7ABF2E6302B00F03E820A9BD9
:10529000013B1A462CA80A93821A3023079201F880
:1052A000013CFFF7FBBA0DF1B00BCDF80CC0304656
:1052B00039460A220023FBF7EDFF303230463946EB
:1052C0000BF8012D00230A22FBF7E4FF06460F46E8
:1052D00056EA0703EBD1DDF80CC02BE74046494600
:1052E0001FAA02F0D1FF00287FF482AADDF884B063
:1052F0002CAC0A9A0C99199B0A4416460D9A9342B3
:105300003EDB029AD5073BD40D9AC6EB0A05D31AA9
:105310009D42A8BF1D46002D2F460BDD209A26601A
:105320000132AB44072ACDF884B06560209200F3C7
:1053300066820834002FACBFDD1B1D46002D7FF7B1
:105340007AAB102D209B414F93DD10265A4603E087
:105350000834103D102D8BDD01331032072B2192C4
:10536000209327606660F3DD404649461FAA02F09D
:105370008BFF00287FF43CAA219A209B2CACE8E705
:10538000209A12981199216001328344072ACDF89E
:1053900084B06060209200F308820834B4E7029B76
:1053A000D8073FF527AE0A9B236001350BF10106B4
:1053B0000123072D2196209563607FF74AAE404672
:1053C00049461FAA02F060FF00287FF411AA219E1F
:1053D000209D2CAC3EE6404649461FAA02F054FFF1
:1053E00000287FF405AA219E209D2CAC0FE60135F4
:1053F0005644072D2196209584E880047FF729AE36
:10540000DDE7404649461FAA02F03EFF00287FF430
:10541000EFA9219E209D2CAC05E6404649461FAAD7
:1054200002F032FF00287FF4E3A9DDF884B02CAC51
:10543000FFF7B5BA4FF02D0C764267EB47078DF8B2
:105440005FC0CDF82CA00123FFF7FCB92C9B00080E
:105450009DED0E0B02F0DCF8002800F0168125F01F
:105460002003BAF1FF3F039300F06082472B05D180
:10547000BAF1000F14BFD3464FF0010B0F9B029AF5
:10548000002B42F480720992C0F260829DED0E7B87
:105490008DED147B4FF0000A662D00F05E81462DE5
:1054A00000F05B81039B452B0CBF0BF101075F46AE
:1054B0001AAA1DAB8DE80C0040469DED140B02218D
:1054C0003A4619AB00F0E8FB672D0A9002D0472D51
:1054D00040F05181029BDB0740F141820A9BDE19BB
:1054E000DDE9140100220023FBF77AFE002840F0DA
:1054F000AD811D9B9E4206D930215A1C1D92197008
:105500001D9B9E42F9D80A9A9B1A0D93039B472B29
:10551000199B00F08381652D40F3A681662D0C93C5
:1055200000F01F820D9B0C9A934200F30282029BB3
:10553000D90700F1398222EAE2730792BAF1000F2B
:1055400040F079810393099B0293CDF82CA09DF83C
:105550005FC0FFF7ABB927F0070797ED007B07F1B6
:1055600008038DED0E7B0893FFF763BB029BDB0600
:105570000BD4029B5F0608D5089A13680432089280
:10558000BDF814201A80FFF774B8089A1368043223
:105590000892059A1A60FFF76CB8029B089A13F0FC
:1055A000400F13463FF462AC1688043200270123F3
:1055B0000892FFF741B9029B089A13F0400F134677
:1055C00076D00433168808930027FFF7D3BA9346A2
:1055D0000133AB44072BCDF884B02093276065607E
:1055E0003FF77CAE083484E6404649461FAA02F0E5
:1055F0004BFE00287FF4FCA8DDF884B02CAC82E4DC
:10560000209BB04A226001330BF1010B0122072BD2
:10561000CDF884B02093626050DC08342DB90D9B26
:105620001BB9029BDE077FF506AA209B1299119AEF
:10563000226001330BEB0102072B21926160209362
:1056400000F3678108346D42002D6FDD102D9E4FF1
:10565000C8BF102605DCB5E00834103D102D40F31E
:10566000B18001331032072B2192209327606660AE
:10567000F2DD404649461FAA02F006FE00287FF4EC
:10568000B7A8219A209B2CACE7E7029E8F4A904B4B
:105690009DF85FC00B90032126F08006472DD8BFF0
:1056A0001A46039102960C900A920791FFF7FEB8F2
:1056B0000433166808930027FFF75CBA4046494652
:1056C0001FAA02F0E1FD00287FF492A8199DDDF8E1
:1056D00084B02CACA2E741F0200102915D78591C06
:1056E000FEF7F7BF06980891404206901946FFF76B
:1056F000F1B9404649461FAA02F0C6FD00287FF4D2
:1057000077A8DDF884B02CAC13E40A9A2CAB9B1A72
:105710000793FFF7C3B8404649461FAA02F0B4FDFD
:1057200000287FF465A8219A209B2CAC0D9860601E
:10573000013302EB000B072B0A9ACDF884B02093BB
:1057400022607FF777A992E4CDF82CB0FDF778F8C6
:10575000089707900346FFF7F2B91AAA1DAB8DE828
:105760000C0040469DED140B03215A4619AB00F086
:1057700093FA5F460A900A9BDE19039B462B7FF43F
:10578000AFAE0A9B1B78302B00F00081199F3E447E
:10579000A6E6404649461FAA02F076FD00287FF49F
:1057A00027A8DDF884B02CACEBE4404649461FAA9C
:1057B00002F06AFD00287FF41BA8199BDDF884B075
:1057C0002CACA1E501332A44072B219220932760BA
:1057D0006560A0DC0834A9E7062E334628BF0623FF
:1057E000079323EAE373DDF828C00393394B089746
:1057F000CDF82CC0CDF830C00A93FFF757B840461B
:1058000049461FAA02F040FD00287EF4F1AF199B23
:105810000D9ADDF884B0D31A2CAC8BE5DF1C22DBAB
:105820009B4520DB0C9367257CE64FF02D0C8DF813
:105830005FC0FFF710BA0393099B02934FF02D0C42
:1058400000238DF85FC00B93FFF733B833465AE659
:1058500026EAE6730B9008970C909DF85FC00393BF
:105860000796FFF723B8023D013B002B1993BABFFF
:105870005B422D222B22092B8DF86C508DF86D2068
:1058800040F398800DF17B063046134A82FB0321DA
:10589000DA17C2EBA10202EB8201A3EB410303F191
:1058A0003001092A134600F8011DEEDC02463033B0
:1058B000D9B202F8011D964240F2A9800DF16E02A4
:1058C00003460DE0289B00082C9B0008F49A000872
:1058D000F09A0008209B00086766666613F8011BB3
:1058E00002F8011BB342F9D11FAB1B1A0DF16E0276
:1058F00013441BAA9B1A0D9A1393012A134407936E
:1059000069DD079B0022013307930C9223EAE373BE
:1059100014E6404649461FAA02F0B6FC00287EF471
:1059200067AF199D219A209B2CAC8CE64FF0060B9B
:10593000A4E50C9B002BD8BFC3F102060D9BC8BF8A
:105940000126F318079323EAE373F7E5DDE90E0177
:1059500001F10043149015934FF02D0A9CE51D9B17
:10596000D1E5002B2EDDBBF1000F07D1029BDE0736
:1059700004D40C9A079222EAE273DFE50C9B0BF148
:1059800001063344079323EAE373D7E5DDE9140105
:1059900000220023FBF724FC00287FF4F7AEC7F1B8
:1059A000010719973E449BE50C9B0133079323EABB
:1059B000E373C3E5303330228DF86F308DF86E20FD
:1059C0001CAB96E7BBF1000F1BD1029BD80718D484
:1059D00001230793B2E5029B13F0010391D10C93CD
:1059E000079B23EAE373A9E5089D2E682846043047
:1059F000002E5D780890BEF66CAE4FF0FF36FEF7D5
:105A000068BE0BF10203079323EAE37396E50DF1F9
:105A10006E036EE7AFF3008030B4044C0D461346BE
:105A200001462A46206830BCFEF7E2BD580500203A
:105A30002DE9F0420C46ADF58D6DB1F80CE0E7694B
:105A4000496EB4F80E9019911AAD4FF480662EF09D
:105A5000020E4FF0000C07976946676A009504959F
:105A600002960596ADF80CE0ADF80E900997CDF8CA
:105A700018C00646FEF7BCFD051E07DB304669462A
:105A8000FDF7ECF8002818BF4FF0FF35BDF80C30DB
:105A90005B0603D5A38943F04003A38128460DF597
:105AA0008D6DBDE8F08200BF38B52F4B1B680546F1
:105AB0000C4613B19A6B002A36D0A28993B218070C
:105AC0000CD52069A8B113F001021ED06369002231
:105AD0005B42A361A260F0B1002038BDD9063BD57E
