:020000040800F2
:100000000000022035040008690300087503000899
:100010007D030008850300088D0300080000000030
:100020000000000000000000000000009503000830
:10003000A103000800000000AD030008B903000898
:10004000890400088904000889040008890400085C
:10005000890400088904000889040008890400084C
:10006000890400088904000889040008890400083C
:10007000890400088904000889040008890400082C
:10008000890400088904000889040008890400081C
:10009000890400088904000889040008890400080C
:1000A00089040008890400088904000889040008FC
:1000B00089040008890400088904000889040008EC
:1000C00089040008890400088904000889040008DC
:1000D00089040008890400088904000889040008CC
:1000E00089040008890400088904000889040008BC
:1000F00089040008890400088904000889040008AC
:10010000890400088904000889040008890400089B
:10011000890400088904000889040008890400088B
:10012000890400088904000889040008890400087B
:10013000890400088904000889040008890400086B
:10014000890400088904000889040008890400085B
:10015000890400088904000889040008890400084B
:10016000890400088904000889040008890400083B
:10017000890400088904000889040008890400082B
:10018000890400088904000890B484B000AF0F4BC4
:10019000BB604FF480637B60EFF308831C4623460B
:1001A000043BFB6005E0FB68094A1A60FB68043BFE
:1001B000FB607B689B089B005B42BA681A44FB6843
:1001C0009A42F0D31037BD4690BC70470000022021
:1001D000EFBEAD0B80B500AF134A134B1B6843F065
:1001E00001031360104B00229A600F4A0E4B1B68EC
:1001F00023F0847323F4803313600B4B0B4A5A6053
:10020000094A094B1B6823F480231360064B002224
:10021000DA6000F00FF8064B4FF000629A6000F0D1
:1002200083F8FFF7B1FF80BD003802401030002492
:1002300000ED00E080B483B000AF00237B600023BA
:100240003B60354A344B1B6843F480331360324BB8
:100250001B6803F400333B607B6801337B603B68C1
:10026000002B03D17B68B3F5A06FF0D12A4B1B683C
:1002700003F40033002B02D001233B6001E0002394
:100280003B603B68012B42D1234A234B1B6C43F05C
:1002900080531364214A214B1B6843F4804313604D
:1002A0001D4A1D4B9B6893601B4A1B4B9B6843F484
:1002B00000439360184A184B9B6843F4A053936023
:1002C000154B174A5A60144A134B1B6843F080734E
:1002D000136000BF104B1B6803F00073002BF9D0B4
:1002E000104B40F205621A600B4A0B4B9B6823F0DF
:1002F00003039360084A084B9B6843F00203936032
:1003000000BF054B9B6803F00C03082BF9D10C3799
:10031000BD465DF8047B7047003802400070004025
:1003200008544007003C024080B483B000AF0B4B40
:100330007B600B4B3B6007E03B681A1D3A607A68B4
:10034000111D796012681A603B68064A9342F3D324
:100350000C37BD465DF8047B704700BFC004000841
:10036000180000203400002080B400AFBD465DF8C6
:10037000047B704780B400AFFEE700BF80B400AFDD
:10038000FEE700BF80B400AFFEE700BF80B400AF5F
:10039000FEE700BF80B400AFBD465DF8047B704748
:1003A00080B400AFBD465DF8047B704780B400AFF9
:1003B000BD465DF8047B704780B400AF044B1B68FA
:1003C0000133034A1360BD465DF8047B704700BFEC
:1003D0001400002080B584B000AF0023FB60094A00
:1003E0003B4607CA83E80700FB680133FB6007F15F
:1003F0000C03184600F04CF83B4693E8070000F069
:1004000003F8F1E7A004000880B485B000AF3B1DFD
:1004100083E807001437BD465DF8047B704700BFD2
:10042000AC0400080000002014000020140000208C
:1004300018000020002103E00D4B5B5843500431AD
:100440000C480D4B42189A42F6D30C4A02E00023A6
:1004500042F8043B0A4B9A42F9D30A48016841F436
:1004600070010160FFF7B6FEFFF7B4FF704700DFD1
:10047000AC0400080000002014000020140000203C
:100480001800002088ED00E0FEE7000000000000FA
:1004900001B40248844601BC604700BF1900002037
:0C04A0000100000001020304050607082B
:1004AC00007A030A000000000000000001020304AF
:0404BC00060708091E
:1004C00080B483B000AF78607B681B685A1C7B687F
:0C04D0001A600C37BD465DF8047B7047D5
:04000005080003D517
:00000001FF
